:020000040800F2
:10000000C008002099010008072B00082D260008D1
:10001000052B0008A5070008B92F00080000000004
:100020000000000000000000000000004D2B000850
:10003000A707000800000000092B00084F2B00084C
:10004000B3010008B3010008B3010008B3010008C0
:10005000B3010008B3010008B3010008B3010008B0
:10006000B3010008B3010008B3010008B3010008A0
:10007000B3010008B3010008B3010008B301000890
:10008000B3010008B3010008B3010008B301000880
:10009000B3010008B3010008B3010008B301000870
:1000A000B3010008B3010008B3010008B301000860
:1000B000CD2B0008D92B0008B3010008B3010008BC
:1000C000B3010008B3010008B3010008B301000840
:1000D000B3010008AD2F0008B3010008B301000808
:1000E000B3010008B3010008B301000800F002F8F2
:1000F00000F042F80AA090E8000C82448344AAF180
:100100000107DA4501D100F037F8AFF2090EBAE87D
:100110000F0013F0010F18BFFB1A43F0010318473B
:1001200080370000A0370000103A24BF78C878C19B
:10013000FAD8520724BF30C830C144BF04680C60ED
:10014000704700000023002400250026103A28BF35
:1001500078C1FBD8520728BF30C148BF0B60704739
:10016000642900F06F80782900F0A8800020704793
:100170001FB51FBD10B510BD00F006FA1146FFF700
:10018000F7FF02F061FF00F024FA03B4FFF7F2FF7B
:1001900003BC02F029FF00000948804709480047D6
:1001A000FEE7FEE7FEE7FEE7FEE7FEE7FEE7FEE727
:1001B000FEE7FEE704480549054A064B7047000084
:1001C000CB2B0008ED000008C0020020C008002072
:1001D000C0040020C0040020704700000FB4044990
:1001E00010B503AA029800F0A1F910BC5DF814FB49
:1001F0004400002070B5044685690068C10601D539
:10020000302600E02026C00707D070BDD4E90121C8
:1002100030469047206A401C20626D1EF6D570BDA6
:1002200070B5044685690078C00707D170BDD4E970
:10023000012120209047206A401C20626D1EF6D5C7
:1002400070BD00002DE9F0410646002410687529B4
:10025000314616A510D0AFF30080002802DA4042E4
:1002600013A507E031688A0701D512A502E0490706
:1002700004D511A5012401E0AFF3008000210A227A
:1002800006F1240709E0B0FBF2FCB0FBF2F302FB3D
:100290001C00303078541846491C0028F3D12346FE
:1002A0002A463046BDE8F04100F0E6B80000000004
:1002B0002D0000002B0000002000000070B5044657
:1002C0000D4621461068AFF300802188090502D54C
:1002D0000F4A7A4402E00E4A7A440E32002104F1B9
:1002E000240305E000F00F060009965D5E54491CEA
:1002F0000028F7D120780023000704D5702D02D004
:1003000009B1022311322046BDE8704000F0B4B8B4
:10031000A03500002DE9F0474FF0000A8946044659
:10032000C0F820A02046E1688847002876D025281C
:1003300006D0D4E901219047206A401C2062F1E7F1
:10034000E168204600258847C4F81CA0064600271F
:10035000C4F818A02A2E09D0304602F03EFE38B369
:1003600004EB8708303EC8F8186019E059F8041B00
:10037000204604EB87029161E1688847012F064619
:1003800018D1E069002820DA25F020051DE0D8F812
:10039000180000EB800006EB40003038C8F8180069
:1003A0002046E1688847064602F017FE0028EED195
:1003B000012F0AD02E2E08D12046E16888477F1CE5
:1003C0000646022F45F02005C4DBA069002803DAA9
:1003D000404245F00105A061E80701D025F0100575
:1003E000B6B1A6F14100192802D8203645F40065BF
:1003F0004A463146204625604D46FFF7B1FE58B1CA
:10040000012806D0ED1D25F0070000F1080989E755
:1004100004E005F1040985E730468AE7206ABDE873
:10042000F0874FF0000200B51346944696462039F7
:1004300022BFA0E80C50A0E80C50B1F12001BFF49D
:10044000F7AF090728BFA0E80C5048BF0CC05DF803
:1004500004EB890028BF40F8042B08BF704748BF51
:1004600020F8022B11F0804F18BF00F8012B7047C5
:1004700070477047704770472DE9F0470D46994621
:100480009246044600F124080168880604D5E06914
:1004900021F01001216000E00120A84201DD471B8E
:1004A00000E00027A1697A1902EB0900081AA0618F
:1004B0002078C00602D42046FFF79CFE002608E004
:1004C000D4E901211AF806009047206A401C761CE6
:1004D00020624E45F4DB2078C0060AD52046FFF79F
:1004E00089FE06E0D4E9012130209047206A401CB3
:1004F0002062381EA7F10107F4DC07E0D4E90121EE
:1005000018F805009047206A401C2062281EA5F1BB
:100510000105F3DC2046FFF783FE2078000602D5B4
:100520000220BDE8F0870120FBE70000074B70B513
:100530000D467B4400F011F80446284600F020F8F0
:1005400010B14FF0FF3070BD204670BDFB2A000097
:1005500001694A1C02610878704700B58FB0CDE987
:1005600001310021059105497944CDE90310114677
:100570006846FFF7CFFE0FB000BD0000E5FFFFFFAC
:10058000007B00F080007047754600F029F8AE4609
:1005900005006946534620F00700854618B020B58F
:1005A000FFF708FEBDE820404FF000064FF00007BF
:1005B0004FF000084FF0000B21F00701AC46ACE80B
:1005C000C009ACE8C009ACE8C009ACE8C0098D4678
:1005D00070470446AFF300802046FFF7D6FD0000C9
:1005E000004870475C02002070B5044600688168CE
:1005F000C943C90717D1816821F00101816000F06A
:10060000B5FC05460AE000BF00F0B0FC401B022824
:1006100004D920688068C043C00706D0206880687D
:10062000C043C007F0D0002070BDA06A40F01000A9
:10063000A062E06A40F00100E062012070BD0000AD
:10064000F8B500260446009600688168C943C907CA
:100650002DD0816841F0010181601648164900687B
:10066000B0FBF1F000E0401E00900028FBD100F04C
:100670007DFC054616E000BF00F078FC401B022818
:1006800010D920688068C043C0070BD0A06A40F032
:100690001000A062E06A40F00100E06284F824608B
:1006A0000120F8BD20688068C043C007E4D1002065
:1006B000F8BD00005400002040420F0010B5FF209C
:1006C00000F020F855280AD05521FF2000F04BF803
:1006D000FF2000F017F8552801D0012010BD0020A0
:1006E00010BD70B514460D46064608E03046711C34
:1006F0008EB200F007F8641E05F8010BA4B2002CBE
:10070000F4D170BD10B5044602F05CF8200AA021B7
:1007100001EB4000C0B202F025F802F095F8E0B21B
:1007200002F020F802F090F802F04CF8A12002F05C
:1007300019F802F089F8002001F0DEFF044602F00B
:1007400061F8204610BD70B516460C46054606E019
:100750002178284600F007F86D1CADB2641C761EA7
:10076000B6B2F5D270BD70B50D46044602F02AF857
:10077000200AA02101EB4000C0B201F0F3FF02F01B
:1007800063F8E0B201F0EEFF02F05EF8284601F0F7
:10079000E9FF02F059F802F035F8BDE870400A2090
:1007A00000F0D8BAFEE7704772B6FEE770B50025D4
:1007B0000E462C4605E000BF00F00AF8641C054414
:1007C000E4B2B442F8D3B5FBF6F080B270BD0000DD
:1007D00010B5094800F0EEF96421074800F04CF923
:1007E000054800F089F8800504D5034800F086F834
:1007F00080B210BD002010BD58000020F8B50024C4
:10080000009490F824202546012A12D0012280F875
:1008100024204A681F23072A0DD20668776B521ED0
:1008200002EB820293409F430B6893401F43776320
:1008300019E00220F8BD06680D2A0AD2376BD21FD4
:1008400002EB820293409F430B6893401F43376340
:1008500009E0F76A0D3A02EB820293409F430B686E
:1008600093401F43F7620A68072306680A2A0AD3DF
:10087000F7680A3A02EB420293409F438B68934029
:100880001F43F76008E0376902EB420293409F4341
:100890008B6893401F4337610A68102A01D0112AE0
:1008A00020D1124B02689A4217D193681B0219D4C7
:1008B000936843F4000393600968102912D10C492E
:1008C0000C4A0968B1FBF2F101EB8101490000E03B
:1008D000491E00910029FBD104E0816A41F020010A
:1008E0008162012480F824502046F8BD0024014094
:1008F0005400002040420F00806A70470068C06CBE
:10090000704700002DE9F0414FF0000704003D461C
:100910007ED0A06A002628B9E66284F824602046CA
:1009200000F07EF82046FFF75FFEA16A01F010019B
:10093000014304D0A06A40F01000A06268E0A16A00
:1009400021F4885141F00201A1626268E169237BD0
:100950000A4347EA43010A43A1684FF48077B9424A
:1009600008D0012906D0002194F814C0BCF1010F71
:1009700002D00AE03946F7E7F3B1A36A43F0200357
:10098000A362E36A43F00103E3622368D3F804C07F
:100990002CF4694C4CEA010CC3F804C02368996834
:1009A000DFF870C001EA0C0111439960A168B942F7
:1009B0000BD0012909D00CE0DFF85CC0A3690CEB77
:1009C00043330B4343F40061DFE7218A0D05A5F5AE
:1009D00080152168CB6A23F470032B43CB62216816
:1009E00089680E4B1940914208D1E662A16A21F054
:1009F000020141F00101A162BDE8F081A06A20F08E
:100A0000020040F01000A062E06A40F00100E062E5
:100A10000120F1E7FDF7E1FF00E0FFFFFE0E1FFF01
:100A200000B585B000210091019102910391006809
:100A30000E49884218D10E48816941F400718161E4
:100A4000816901F400710491816941F008018161BB
:100A50008069694600F0080004900220009003209D
:100A60000190044800F088F905B000BD0024014061
:100A700000100240000C01402DE9F84300270D460C
:100A80000446009700F072FA804620688168C90524
:100A900008D5A06A40F02000A06284F824700120EC
:100AA000BDE8F8834168C90503D4C06A10F4700F2B
:100AB0002AD0022000F0F8FA3B490968B1FBF0F6B1
:100AC0002068036939490B424FEA61014FEAA112DC
:100AD0001FD1C3684FEA611C13EA0C0F19D10369D7
:100AE0000B4225D1C068104222D1142023E0681C9B
:100AF0000AD02DB100F03AFAA0EB0800A84203D9C1
:100B000020680068800725D5206800688007EED53A
:100B10002DE003690B4202D1C168114206D002697F
:100B200023490A4206D1C068084203D1542002E09A
:100B3000292000E0FC204643009816E0681C11D0F4
:100B40002DB100F013FAA0EB0800A8420AD90098D2
:100B5000B04207D2A06A40F00400A06284F824707A
:100B600003209DE70098401C0090B042E6D3216826
:100B70006FF012000860A06A40F40070A062206864
:100B80008068C0F3424007280CD1207B50B9A06A8E
:100B900020F48070A062A06AC00403D4A06A40F070
:100BA0000100A06200207BE7540000202449922429
:100BB0004992240070B5044690F8240001280DD015
:100BC000012084F824002046FFF73AFD02004FF090
:100BD000000005D084F82400104670BD022070BDCE
:100BE000A16A40F20123994341F48071A1621F4D33
:100BF00023681F49AB4218D10E6816F4702F14D029
:100C0000A66A46F48016A6620E68760505D5A66A21
:100C100026F4005646F48056A662A66AF6040AD563
:100C2000E66A26F00606E66206E0A66A26F4801664
:100C3000A6625E68E9E7E06284F824006FF00200D3
:100C4000186020688368C3F34243072B05D1A8428C
:100C500008D1096811F4702F04D0816841F4801123
:100C60008160B9E7816841F4A001F9E700280140FB
:100C70000424014010B590F821100022022905D06B
:100C80000421816380F82020012010BD01680B68D9
:100C900023F00E030B6001680B6823F001030B6067
:100CA00090F84030C46B012101FA03F3636080F8CF
:100CB000211080F82020104610BD000010B590F8DB
:100CC00021100024022903D00421816301243DE086
:100CD00001680A6822F00E020A6001680A6822F0C0
:100CE00001020A601A4A0168914201D1012121E002
:100CF000174A1432914201D110211BE0144A2832C4
:100D0000914201D1891515E0114A3C32914201D13D
:100D100089140FE00E4A5032914202D14FF48031D3
:100D200008E00B4A6432914202D14FF4801101E095
:100D30004FF08071064A083A5160012180F8211075
:100D4000002180F82010416B01B18847204610BD7A
:100D50000800024070B5044600F008F90546601C22
:100D600002D004480078044400F000F9401BA0427F
:100D7000FAD370BD480000202DE9F84FDFF8B89194
:100D8000002409F1040A0AF1040B23460F270BF192
:100D9000040EC9E00125A5402A40AA427DD1674E34
:100DA000D1F804C0ACEB0608B44532D014DCBCF179
:100DB000030F3AD009DCBCF1000F2AD0BCF1010FBF
:100DC0001CD0BCF1020F31D11DE0BCF1110F17D0C6
:100DD000BCF1120F2AD119E0B8F5881F19D006DC32
:100DE000B8F5803F15D0B8F5801F1FD111E0B8F5D8
:100DF000001F0ED0B8F5041F18D10AE0CB6815E02B
:100E0000CB681B1D12E0CB6808330FE0CB680C33B6
:100E10000CE08B682BB1012B4FF0080303D0456128
:100E200004E0042302E0056100E00023FF2A01D86A
:100E3000064601E000F104064FEA840501D9A5F158
:100E40002005D6F8008007FA05FC28EA0C0803FA0A
:100E500005F548EA0508C6F800804D68ED0062D542
:100E6000374DAE6946F00106AE61AD6924F0030668
:100E700005F001050095334D06EB050CDCF8085034
:100E8000A607360F07FA06F825EA0805DFF8B88046
:100E9000404503D14FF0000817E044E0DFF8AC8094
:100EA000404502D14FF001080FE0DFF8A480404533
:100EB00002D14FF0020808E0DFF89880404502D1E7
:100EC0004FF0030801E04FF0040808FA06F848EA7A
:100ED0000508CCF808804D68D9F80060ED034D4650
:100EE00001D5164300E096432E604D68DAF80060A5
:100EF000AD03554601D5164300E096432E604D687C
:100F0000DBF80060ED025D4601D5164300E0964334
:100F10002E604D68DEF80060AD02754601D51643BF
:100F200000E096432E60641C0D682A46E5407FF47D
:100F300031AFBDE8F88F000000040140000011103F
:100F4000001002400000014000080140000C014078
:100F500000100140001401408068084000D00120CA
:100F600070470AB1016170470904FBE701488068D6
:100F70007047000048000020024881680278114450
:100F80008160704748000020074810B5016841F0B3
:100F900010010160032000F075F80F2000F006F842
:100FA00000F024F8002010BD0020024070B50D4D67
:100FB00004464FF47A712878B1FBF0F00A490968C9
:100FC000B1FBF0F000F0C6FB48B9102C07D20022AC
:100FD0002146501E00F036F800206C6070BD0120E4
:100FE00070BD000048000020540000200C4808B5E7
:100FF000816941F001018161816901F00101009184
:10100000C16941F08051C161C06900F08050009019
:101010000448416821F0E06141F00071416008BD81
:101020000010024000000140002809DB00F01F0210
:10103000012191404009800000F1E020C0F800113A
:1010400070470000F0B40E4B1B680C46C3F302233C
:10105000C3F10705042D00D90425191D072901D264
:10106000002300E0DB1E012606FA05F1491E21409F
:1010700099409E40761E16403143F0BC01F09DBF62
:101080000CED00E0064900F0070208684FF6FF0388
:10109000184040EA0220034A1043086070470000ED
:1010A0000CED00E00000FA0510B529A401461DCCA6
:1010B00086B08DE81D002AA02A4C0068049000200C
:1010C000012923D002293AD010291DD16168226854
:1010D000D20119D5C1F38342C9031DF8020009D515
:1010E000616804AAC1F34041515C1F4AB2FBF1F1AF
:1010F000484301E01D4948436168490204D4400067
:101100005FF00301B0FBF1F006B010BD226AC2F33C
:101110000121012903D1920701D5C803F4E702296F
:1011200005D1626A920702D549F64040ECE70329EF
:10113000EAD121688903E7D54FF22440E4E700F0C3
:1011400033F96168C1F38131491C4900DAE70000D5
:1011500002030405060708090A0B0C0D0E0F1010F8
:10116000010200000010024000127A0000093D0058
:101170002DE9F84305460078354CC00754D0E069A6
:101180000026C00008D4E06940F08050E061E069CA
:10119000012600F0805000902E480168C90512D445
:1011A0000168804641F480710160FFF7DFFE074669
:1011B00005E000BFFFF7DAFEC01B642823D8D8F88B
:1011C0000000C005F6D5206A10F4407021D0A9882F
:1011D00001F4407181421CD0206A1F49012220F491
:1011E00040700A6000220A602062C00711D0FFF739
:1011F000BDFE074641F2883808E000BFFFF7B6FEA3
:10120000C11B414502D90320BDE8F883206A80074D
:10121000F4D5206A696820F44070084320621EB14A
:10122000E06920F08050E0612878800705D560688B
:10123000A96820F44040084360602878C00605D5BE
:101240006068E96820F48000084360600020DBE704
:101250000010024000700040400442422DE9F04777
:101260000F46050061D0434E306800F00700B842D9
:1012700009D2306820F0070038433060306800F051
:101280000700B84251D128683B4C810712D540076E
:1012900003D5606840F4E06060602878000703D5FB
:1012A000606840F4605060606068A96820F0F000F9
:1012B000084360602878C00728D06868012810D0EB
:1012C0002168022810D0890700292EDA616821F0F0
:1012D000030101436160FFF749FE804641F288390E
:1012E0000DE021688903EFE78901EDE7FFF73EFE96
:1012F000A0EB0801494502D90320BDE8F0876068EA
:10130000696800F00C00B0EB810FEFD1306800F09D
:101310000700B8420BD9306820F00700384330602E
:10132000306800F00700B84201D00120E5E72878D6
:10133000400705D56068E96820F4E0600843606014
:101340002878000706D56068296920F4605040EAD3
:10135000C100606000F038F86168084AC1F3031109
:10136000515CC8400649086006480068FFF71EFE49
:101370000020C2E700200240001002405E38000852
:10138000540000204C0000200448054900684968CA
:10139000044AC1F30221515CC84070475400002048
:1013A000001002406E38000804480549006849688A
:1013B000044AC1F3C221515CC84070475400002068
:1013C000001002406E38000812A185B00FC98DE8E8
:1013D0000F0014A0144A006804905168134801F0EB
:1013E0000C03042B10D0082B0ED1C1F38343C90387
:1013F0001DF803000AD5516804AAC1F34041515CAD
:101400000A4A5043B0FBF1F005B070470849484321
:10141000FAE7000002030405060708090A0B0C0D91
:101420000E0F1010010200000010024000127A009E
:1014300000093D002DE9F84F040070D02078C04D20
:10144000C00749D06868C0F38100012807D06868E8
:10145000C0F38100022809D16868C00306D5286856
:10146000800339D560680028E7D035E06068B0F5C2
:10147000803F0BD010B1B0F5A02F11D0286820F418
:1014800080302860286820F4802002E0286840F43A
:1014900080302860606890B1FFF768FD06460AE07A
:1014A000286840F480202860F0E700BFFFF75EFD69
:1014B000801B642873D828688003F7D50CE0FFF7F9
:1014C00055FD064605E000BFFFF750FD801B642870
:1014D000F0D828688003F7D420789A4E80074FF020
:1014E00001094FF0000839D5686810F00C0F07D0DB
:1014F0006868C0F38100022809D16868C00306D477
:101500002868800714D52069012808D110E02069D7
:10151000B0B1C6F80090FFF729FD074605E00AE1E3
:10152000FFF724FDC01B0228C4D828688007F7D520
:101530002868616920F0F80040EAC10028600DE0E9
:10154000C6F80080FFF712FD074604E0FFF70EFD26
:10155000C01B022823D828688007F7D4207800070A
:101560002CD57948A169D9B1C0F80090FFF7FEFCED
:10157000074604E0FFF7FAFCC01B02280FD8686A90
:101580008007F7D571484FF4FA510068B0FBF1F0CD
:10159000009000BF0098411E0091FAD20EE080E05A
:1015A000C0F80080FFF7E2FC074604E0FFF7DEFC2E
:1015B000C01B022875D8686A8007F7D420784007D6
:1015C00060D5E8690027C00008D4E86940F0805081
:1015D000E861E869012700F0805000905C480168EC
:1015E000C90513D40168834641F480710160FFF797
:1015F000BDFC824606E000BFFFF7B8FCA0EB0A0086
:1016000064284ED8DBF80000C005F5D5E068012855
:101610000AD008B1052813D0286A20F001002862FA
:10162000286A20F0040002E0286A40F001002862E5
:10163000E06841F2883B98B1FFF798FC82460BE0E6
:10164000286A40F004002862EEE700BFFFF78EFC36
:10165000A0EB0A0159455AD8286A8007F6D50CE054
:10166000FFF784FC824605E0FFF780FCA0EB0A014F
:1016700059454CD8286A8007F6D41FB1E86920F094
:101680008050E861E06988B36968C1F3810102298B
:1016900044D00228C6F8608004D0FFF767FC0446F7
:1016A00038E034E0FFF762FC074604E0FFF75EFC39
:1016B000C01B02282BD828688001F7D4206AB0F517
:1016C000803F05D16868A16820F400300843686055
:1016D000D4E908010843696821F47411084368607B
:1016E000C6F86090FFF742FC044606E025E000BF24
:1016F000FFF73CFC001B022809D828688001F7D5B9
:101700001BE000BFFFF732FC001B022802D90320B8
:10171000BDE8F88F28688001F4D40EE00128F7D0E6
:101720006868226A00F48031914204D1616A00F451
:101730007010884201D00120EAE70020E8E70000AD
:101740000010024000004242800442425400002047
:101750000070004010B5401EB0F1807F01D3012021
:1017600010BD4FF0E02460610F21601701F025FCEF
:101770000020A06107202061002010BD7047704745
:1017800070B590F83C20012A26D0012480F83C4016
:10179000022280F83D2003685A689D6822F0700696
:1017A0000A6832435A600D4B02689A4208D0B2F17F
:1017B000804F05D00A4B9A4202D00A4B9A4204D17C
:1017C000496825F080031943916080F83D4000216D
:1017D00080F83C10084670BD022070BD002C01400E
:1017E000000400400008004010B5040003D094F845
:1017F0003D0010B107E0012010BD002084F83C003E
:10180000204600F01FF8022084F83D00211D2068CA
:1018100001F0E8F9012084F8460084F83E0084F8DD
:101820003F0084F8400084F8410084F8420084F8C6
:10183000430084F8440084F8450084F83D0000200B
:1018400010BD000008B50068B0F1804F12D10A4801
:10185000C16941F00101C161C069002200F00100CD
:10186000009011461C20FFF7EDFBBDE808401C204E
:10187000FFF7DABB08BD00000010024090F83D10F1
:10188000012901D001207047022180F83D10016834
:10189000CA6842F00102CA6000680B49884208D059
:1018A000B0F1804F05D00949884202D008498842EA
:1018B00004D1816801F00701062903D0016841F0D5
:1018C0000101016000207047002C0140000400402D
:1018D0000008004070B5044690F83C00012817D07D
:1018E000012584F83C50022084F83D00206882687D
:1018F00022F0770222F47F4282600868502830D0BC
:101900000DDC20284DD005DC98B310283BD148E0F1
:10191000022070BD302844D0402834D139E06028FE
:1019200028D0702806D0B0F5805F2CD0B0F5005FCD
:1019300029D10AE0CB68D1E90121206801F095F9AD
:101940002068816841F0770109E0CB68D1E9012185
:10195000206801F08AF92068816841F48041816043
:1019600011E0CA684968206801F091F950212068A7
:1019700007E016E0CA684968206801F0C5F96021EF
:10198000206801F07CF984F83D50002084F83C0088
:1019900070BDCA684968206801F079F94021206863
:1019A000EFE7226801461046EBE7000070B50068DB
:1019B0002D49884257D101212C48FFF7CDFA2C4DF3
:1019C0002C4C002678B12868016A21F4007101626C
:1019D0002868016A41F400710162286846626079F2
:1019E00040F010003EE00821214800F0CFFB80B21B
:1019F000208329680A6A22F400720A6229680A6A46
:101A00000A626179CA062AD50B064FF4F9721DD510
:101A1000A0F22D13934202D8E069400009E0A0F241
:101A200079524FF4C7739A4205D8E069400040F0FC
:101A30000100E06113E0A0F6990098420FD8A07968
:101A4000401CA07101F0F000607108E0A0F580502A
:101A50006938904203D841F080006071A6716079C6
:101A600020F01000607170BD00040040000C0140C7
:101A7000D0000020040000202DE9F041054690F838
:101A80003C000C46012836D0012085F83C008AB382
:101A9000042A42D02868082A51D0D4E90023E168FA
:101AA000066A26F480560662C669076A26F44076FE
:101AB00046EA03234FF6FF7606EA013123F470432A
:101AC00019434FF4005627F4005306EA02321A4332
:101AD000C16102622868C16921F44061C16128685E
:101AE000C169A26841EA0221C161002085F83C0079
:101AF000BDE8F08101E00220FAE7D4E90012E368D2
:101B0000286801F0D5F82868816921F00C0181610D
:101B100028688169A26811430FE0D4E90012E368E4
:101B2000286801F003F92868816921F44061816126
:101B300028688169A26841EA02218161D5E7D4E978
:101B40000027267B016A21F480710162C169036A62
:101B500021F00301394321F0F00731074FF40076FB
:101B600047EA116123F4007306EA02221A43C161B5
:101B700002622868C16921F00C01C1612868C1694D
:101B8000A2681143B0E710B5040003D094F83D00FB
:101B900010B107E0012010BD002084F83C00204671
:101BA00000F01EF8022084F83D00211D206801F09D
:101BB00019F8012084F8460084F83E0084F83F00BC
:101BC00084F8400084F8410084F8420084F843001F
:101BD00084F8440084F8450084F83D00002010BDDE
:101BE00000B585B000210091019102910391006838
:101BF000114988421ED11148C16941F00201C161F9
:101C0000C16901F002010491816941F0080181611B
:101C10008069694600F0080004900120009008489F
:101C2000FFF7AAF8002201211D20FFF70BFA1D2063
:101C3000FFF7FAF905B000BD0004004000100240B3
:101C4000000C014010B5044651B104290DD00829FB
:101C500010D094F8410094F84520012811D10EE0ED
:101C600094F83E0094F84220F7E794F83F0094F887
:101C70004320F2E794F8400094F84420EDE7012A6D
:101C800001D0012010BD022051B1042911D0082932
:101C900018D084F8410084F845000C291BD136E0A7
:101CA00084F83E0084F842002068C26842F00202D4
:101CB00010E084F83F0084F843002068C26842F0D6
:101CC000040207E084F8400084F844002068C268F9
:101CD00042F00802C2600122206800F0B9FF0E49FC
:101CE0002068884208D0B0F1804F05D00B49884267
:101CF00002D00B49884204D1816801F0070106290E
:101D000003D0016841F001010160002010BD20688E
:101D1000C26842F01002DDE7002C014000040040E0
:101D20000008004070B50446006801694FF00005E6
:101D3000C943890715D4C168C943890711D4E91E6D
:101D4000016101202077206880698007204602D049
:101D5000FFF72CFE04E000F098F8204600F096F81B
:101D6000257720680169C943490717D4C168C94369
:101D7000490713D46FF00401016102202077206825
:101D8000806910F4407F204602D0FFF70FFE04E088
:101D900000F07BF8204600F079F82577206801698B
:101DA000C943090716D4C168C943090712D46FF0A3
:101DB00008010161042020772068C069800720465F
:101DC00002D0FFF7F3FD04E000F05FF8204600F0DA
:101DD0005DF8257720680169C943C90617D4C16831
:101DE000C943C90613D46FF01001016108202077A0
:101DF0002068C06910F4407F204602D0FFF7D6FD6E
:101E000004E000F042F8204600F040F82577206812
:101E10000169C943C90708D1C168C943C90704D1C9
:101E2000891E0161204600F033F820680169C9432A
:101E3000090609D4C168C943090605D46FF08001B9
:101E400001612046FFF79AFC20680169C9434906F1
:101E500009D4C168C943490605D46FF04001016146
:101E6000204600F0A8F920680169C94389060BD40F
:101E7000C168C943890607D46FF02001016120467B
:101E8000BDE87040FFF77BBC70BD70477047000035
:101E90002DE9F05F0068B649B64C884214D16179EB
:101EA0000A0611D521F0100161710A0702D141F033
:101EB00040016171C9B201F00F020E2A01D2491C22
:101EC00001E001F070016171B0F1804F7ED1606A74
:101ED000401C606200F01AFE6070616A4FF47A7B09
:101EE000B1FBFBF20BFB1210A34F01264FF0060AC9
:101EF000002508BB01227F21A048FFF732F894F9A2
:101F0000070007EB8001C1F880516178022902D0F7
:101F1000222902D002E0657300E06673617B11B193
:101F2000012904D101E0401E00E0401CE07194F959
:101F30000700062801DDE57103E0002801DA84F8D6
:101F400007A060784FF00A084FF49669A82802D0DD
:101F5000E02812D020E0A18A491C89B2A18249451B
:101F60001AD3E178491CC9B2E1700A2903D984F86F
:101F700003804146267021720DE0A18A491C89B276
:101F8000A182494508D3E178491EC9B2E1700A2906
:101F900001D9E5702670A58294F9081021B1C7F81F
:101FA0009C51491E217201E0C7F89C61617A491E6B
:101FB00011F0FF01617203D1FF216172E17821729A
:101FC000622820D1A078C0BB322100E0B7E0092010
:101FD000FEF7ECFB208201F050F94FF06632684BBF
:101FE00001F05EF901F018F9074601F0B9FA80B284
:101FF000608201F0D5FA394601F0B2FB614901F087
:10200000E3FA2062A6705B4861780E30E22915D0B1
:10201000302917D0182915D07A2913D0102911D0BA
:1020200038290FD05A290DD042290BD04A2909D07E
:10203000522907D0682905D040E04FE0057045706F
:1020400025714BE0E28A521C92B2E2824A4535D3B6
:102050004A2929D00CDC302913D004DC102919D0EE
:10206000182927D110E0382916D0422922D119E0A9
:1020700052291BD05A2911D0682919D07A2919D18F
:1020800004E02279865415E0022200E0032223793D
:10209000C2540FE00422FAE70522F8E7237900F89A
:1020A00003A007E00722F2E70822F0E70922EEE7A3
:1020B00022798554E582227902B9267190290DD1C1
:1020C0004178007800EB800001EB40002E49A062CF
:1020D00025714A78097800FB01202073E07A254EAB
:1020E00064272C36814608281CD2DFE800F01A0449
:1020F0000E2A1A31363B207B642812D9B0FBFBF242
:102100000BFB1200B0FBF7F020E0207B0A2808D977
:10211000B0FBF7F107FB1101B1FBF8F016E0A0727C
:1021200000E0A5724946A07A00F0D4FB00F0B8FBAD
:10213000E07A401CC0B2E072082800D1E572BDE828
:10214000F09F217BB1FBF8F208FB1210305CE6E750
:10215000608A305C40F00100E1E7206A01F000FA9B
:1021600080B2CFE7206A01F0FBF980B2D0E700002F
:102170000004004004000020000022420010014042
:1021800066664A3F00007A440200002002460020B2
:1021900041B1042909D008290AD00C2901D11068BD
:1021A000006C70471068406B70471068806B704718
:1021B0001068C06B704770477047704710F83D1F3C
:1021C0004078084370470000F8B50268044610687C
:1021D000D168536910F00F0F4FF0000554D003F091
:1021E000010601F4907737435FD0C20705D0CA05D6
:1021F00003D5226C42F001022264420705D5DA07BA
:1022000003D0226C42F002022264820705D5DA076D
:1022100003D0226C42F004022264020707D501F0C9
:102220002002324303D0226C42F008022264226C66
:10223000002A35D0800604D5880602D5204600F055
:10224000B0FD20684069216CC0F3801001F00801E6
:102250000143204625D000F08CFD206841694906E5
:102260001BD5416921F040014161A06BA8B15849DB
:102270004163A06BFEF722FD002811D0A06B416BDB
:1022800001B0BDE8F040084783060ED58B060CD59B
:102290002046BDE8F84000F084BD2046FFF78DFFE2
:1022A000F8BDFFF78AFF2564F8BD266B2023012EB9
:1022B00052D1C60650D5CE064ED510685068009053
:1022C000506940062AD5A16B086840680004000CDC
:1022D000EAD0A68D8642E7D9E0858869202818D003
:1022E000D06820F48070D0602068416921F001013D
:1022F00041612068416921F04001416184F83E302C
:1023000025632068C16821F01001C160A06BFEF751
:10231000B1FCA08DE18D401A81B219E0A08DE18D54
:10232000401A81B2E08D0028BED00029BCD0D06810
:1023300020F49070D0602068426922F0010242616E
:1023400084F83E3025632068C26822F01002C26023
:102350002046FFF731FFF8BD05062BD50D0629D520
:1023600094F83D002128F6D1A068B0F5805F01D136
:102370002069B0B1206A411C216221680078486060
:10238000E08C401E0004000CE084E4D12068C168A9
:1023900021F08001C1602068C16841F04001C16046
:1023A000F8BD206A0088C0F308005060206A801CD5
:1023B0002062E5E74006F3D54806F1D5D16820460E
:1023C00021F04001D16084F83D3000F02EF9F8BDD5
:1023D000632D000870B5040004D094F83D0000257A
:1023E00010B106E0012070BD84F83C50204600F09A
:1023F00023F8242084F83D002068C16821F40051AE
:10240000C160204600F028FD2068016921F4904158
:1024100001612068416921F02A0141612068C16899
:1024200041F40051C1602564202084F83D0084F807
:102430003E00002070BD000030B585B0002400943F
:102440000194029403940068184988422CD11848DA
:10245000816941F480418161816901F48041049185
:10246000816941F0040181618069124D00F004002E
:1024700004904FF40070009002200190032003901C
:1024800069462846FEF778FC2815CDE90004694620
:1024900028460294FEF770FC002211462520FEF724
:1024A000D1FD2520FEF7C0FD05B030BD003801404C
:1024B000001002400008014090F83E30202B0ED161
:1024C00059B152B190F83C30012B08D0012380F86B
:1024D0003C300023036300F01BBD01207047022045
:1024E000704700002DE9F0411D4C00254FF4807627
:1024F00020784FF6FF77FF280BD325703146194817
:10250000FDF78FFF3B460A2217A11A4800F034F866
:102510001DE0144962780A54401CC2B28818227027
:1025200010F8011C0A2912D110F8020C0D280ED146
:102530003B460C490F4800F01FF80E48FFF73EFEDF
:102540002128FAD0257031460648FDF76AFFBDE81C
:10255000F04103490122491C0648FFF7ADBF0000C6
:102560004200002018010020CAFDBEDDD2E7B3F60C
:1025700000000000180200202DE9F843044690F8FE
:102580003D001F4616460D4620284CD1C5B1BEB1B0
:1025900094F83C00012846D0012084F83C004FF01C
:1025A0000008C4F84080212084F83D00FEF7DEFCDE
:1025B000A6848146E684A068B0F5805F03D004E07D
:1025C0000120BDE8F883206928B12E465FF00005A0
:1025D00084F83C800EE00026FAE78021204600F0D7
:1025E000B2FCA0B9AEB116F8010B21684860E08CCE
:1025F000401EE084E08C4B464FF00002009700281C
:10260000EBD14FF04001204600F09DFC30B103209B
:10261000D7E735F8020BC0F30800E6E7202084F87E
:102620003D000020CDE70220CBE77047FEE7000029
:1026300070B50D4C0025C4F898510C48016821F084
:1026400070410160016841F040510160C4F89C5143
:10265000022004F5CC7400F0C8FC012020600220A8
:1026600000F0C3FC256070BD00802142000C0140D9
:102670000E4810B5816986B041F00801816180691A
:10268000012400F008000490C020CDE900040320DC
:10269000CDE9024069460648FEF76EFB0548C0F8E2
:1026A0009C41C0F8984106B010BD000000100240E7
:1026B000000C01400080214270B50D4C0025C4F88B
:1026C00098510C48016821F070410160016841F0A7
:1026D000405101600126C4F89C61022004F5CC74CD
:1026E00000F083FC2660022000F07FFC256070BDB6
:1026F00000802142000C01402DE9F0478146174837
:102700000024016821F070410160016841F000413E
:102710000160134E254627464FF00108C6F8987110
:10272000022000F062FCC6F898816006040ED6F81C
:102730001C0108B1641CE4B2012000F056FC6D1CC1
:10274000EDB2082DEAD3B9F1000F04D0FFF770FF06
:102750002046BDE8F087FFF7AFFFF9E7000C014026
:10276000008021422DE9F04106461448016821F01D
:1027700070410160016841F040510160104C002738
:10278000C4F898713D464FF00108F009C4F89C0167
:102790007006060E022000F028FCC4F89881022082
:1027A00000F023FCC4F89871022000F01EFC6D1CA0
:1027B000EDB2082DE9D3BDE8F0810000000C014026
:1027C0000080214270B50D48016821F07041016020
:1027D000016841F040510160094C0120C4F89C019E
:1027E000C4F89801042004F5CC7400F0FEFB002529
:1027F0006560042000F0F9FB256070BD000C01400D
:10280000008021420E4810B5016821F0704101603E
:10281000016841F0405101600A4C0020C4F8980161
:10282000C4F89C01042004F5CC7400F0DEFB012008
:1028300020606060BDE81040042000F0D6BB0000BE
:10284000000C01400080214270B51348002401684B
:1028500021F070410160016841F0004101600F4DBD
:102860000126C5F89C61304600F0BFFBC5F89861B1
:10287000012000F0BAFB07E0641CE4B2FA2C03D993
:10288000FFF7C0FF012070BDD5F81C010028F3D16F
:10289000C5F8980170BD0000000C01400080214285
:1028A00003480121C0F890110021C0F89011704731
:1028B00000802142064900F00102C1F8A821C0F3BE
:1028C0004002C1F8AC21C0F38000C1F8B0017047EC
:1028D0000000224270B4034600200A4A0446012543
:1028E00023FA00F606F00106C2F88C61C2F89441A2
:1028F000C2F89451401CC0B20828F1D370BC0846FD
:10290000FFF7D8BF008021423EB500241148009453
:10291000019402940E4984600160047304750125DA
:1029200005614FF460214460C161FDF7EBFF08B120
:10293000FDF73AFF0920CDE90005694602940548F4
:10294000FDF75CFF002801D0FDF72EFF3EBD000023
:1029500000240140580000202DE9F04385B00024F8
:1029600021480094019402940394816941F010017C
:102970008161816901F010010491816941F00801D0
:102980008161816901F008010491816941F00401CC
:1029900081618069DFF8548000F0040041F6FF4552
:1029A0000490002229464046FEF7DBFADFF840900B
:1029B0004FF49C77002239464846FEF7D2FA00953C
:1029C000022601250396CDE9015469464046FEF7EB
:1029D000D3F900970396CDE9015469464846FEF7BE
:1029E000CBF905B0BDE8F0830010024000100140B3
:1029F000000C014010B586B00024174800940194E3
:102A00000294039404944FF08041059401603F21A7
:102A1000C0E901146321C0E9031480218161FEF73C
:102A2000E3FE08B1FDF7C0FE4FF480500090694608
:102A30000948FEF74FFF08B1FDF7B6FE2020CDE9AB
:102A4000040404A90448FEF79BFE002801D0FDF70A
:102A5000ABFE06B010BD00008800002010B586B0A7
:102A60000024194805940494009401940294154993
:102A7000039401603F21C0E9011442F21071C0E9E2
:102A8000031480218161FFF77EF808B1FDF78CFE09
:102A9000049404A90C480594FEF772FE08B1FDF7F2
:102AA00083FE0120CDE900400320CDE90240082249
:102AB00069460548FEF7E0FF002801D0FDF774FEE7
:102AC00006B010BD00040040D00000200C4810B536
:102AD0000A4901604FF4E1314160002181600C221C
:102AE000C160C0E904128161C161FFF773FC002875
:102AF00003D0BDE81040FDF757BE10BD00380140BF
:102B000018020020FEE7FEE77047000030B50E4ACD
:102B100000205479610616D5D1696FEA11450B0E74
:102B2000EDB29D420AD14BB9C1F30723C943C9B2E3
:102B3000994203D1180001D0210604D424F04001A9
:102B400051710021917130BD040000207047FEF7E3
:102B500013BA30B593B028216846FDF762FC142102
:102B60000AA8FDF75EFC0024022501200F940490C2
:102B700000951020059012944FF46010CDE90840A4
:102B80001194109407956846FEF754FC08B172B68C
:102B9000FEE70F20CDE90A054FF48060CDE90C4037
:102BA00002210AA80E94FEF759FB08B172B6FEE79F
:102BB0004FF4004011900F950FA8FEF7D9FA0028A6
:102BC00001D072B6FEE713B030BD70470148FFF781
:102BD000A9B80000880000200148FFF7A3B8000052
:102BE000D0000020F0B50268164B174C174D4FF07F
:102BF0008047984205D0B84203D0A04201D0A842F5
:102C000003D122F070064A683243984205D0B84298
:102C100003D0A04201D0A84203D122F44074CA6874
:102C200022434C6922F08002224302608A68C26219
:102C30000A688262984201D10969016301214161F8
:102C4000F0BD0000002C01400004004000080040DE
:102C500010B501F01F030121046A99408C430462FE
:102C6000016A9A401143016210BD10B5846842EABE
:102C7000032224F47F440A432243826010BD826809
:102C800022F070020A4342F007018160704710B5DC
:102C9000036A046A24F001040462846924F0F004E5
:102CA00044EA021423F00A020A438461026210BD5E
:102CB00070B5046A24F0010404628469056A0F4E49
:102CC000B04208D0B0F1804F05D00D4EB04202D0D6
:102CD0000C4EB04203D124F00304144301E044F04D
:102CE00001041A0724F0F00444EA126225F00A03F2
:102CF00001F00A0119438261016270BD002C01409C
:102D0000000400400008004010B5036A23F01003DF
:102D100003628369046A23F4704343EA023224F0B5
:102D2000A00343EA01118261016210BD30B5046A5B
:102D300024F0100404628469056A24F4407444EAAF
:102D4000022222F470444FF6FF7202EA0332224359
:102D5000A02425F0A00304EA011119438261016255
:102D600030BD10B5406A0021C185C184FFF725FA46
:102D700010BD0168CA6822F49072CA6001684A698D
:102D800022F001024A61016B012904D10168CA687D
:102D900022F01002CA60202180F83E100021016359
:102DA000704708B590F83E10222901D0022008BDD6
:102DB00082684FF480539A4201D1016921B1816A3E
:102DC0009A421BD04AB10AE00268816A5268C2F393
:102DD00008020A80816A891C08E0026972B10268EF
:102DE000526802F07F020A70816A491C8162C18DBB
:102DF000491E0904090CC18503D019E00268526814
:102E0000F1E70168CA6822F02002CA600168CA6856
:102E100022F48072CA6001684A6922F001024A61A4
:102E2000202180F83E10016B012903D0FFF75AFBE7
:102E3000002008BD002101630168CA6822F0100269
:102E4000CA6001680A68D20602D50A68496800911A
:102E5000818DFFF7B1F9EBE770B5044600680169B1
:102E6000E26821F44051114301612169A0680843DF
:102E7000616908432168CA6841F20C639A430243BE
:102E8000CA6020684169A26921F44071114341611F
:102E90001E492068884202D1FEF786FA01E0FEF75B
:102EA00073FA00EBC00101EB00126068642180003E
:102EB000B2FBF0F3B3FBF1F36FF018067343B2FB10
:102EC000F0F5B2FBF0F605EB8305322303EB0515B5
:102ED000B5FBF1F5B6FBF1F605F0F00505EB0615CF
:102EE000B2FBF0F6B2FBF0F0B0FBF1F06FF01802BD
:102EF000504306EB800003EB0010B0FBF1F02168BB
:102F000000F00F002844886070BD000000380140C8
:102F100081628285C28500210164222280F83E20E0
:102F200080F83C100168CA6842F48072CA60016887
:102F30004A6942F001024A610068C16841F020011B
:102F4000C160002070472DE9F041984617460E46B3
:102F50000446069D1DE0681C1BD02DB1FEF706F847
:102F6000A0EB0800A84214D92068C16821F4D071F0
:102F7000C1602068416921F001014161202084F88D
:102F80003D0084F83E00002084F83C000320BDE8AA
:102F9000F0812068006836EA000004D00020B842C2
:102FA000D9D00020F3E70120F9E700000148FFF73E
:102FB0000BB9000018020020FEE70907090E0028DF
:102FC00004DB00F1E02080F80014704700F00F00EF
:102FD00000F1E02080F8141D704730380A2801D233
:102FE0000120704700207047704731B54FF461757C
:102FF0004FF0E022009818E02B46984200D8034694
:103000009169584211EB801005D494698C4209DA19
:103010008442FADA06E000F57A4094698C42FCDDDD
:103020008442FADC0098C01A00900028E4D138BD30
:1030300004490A685206FCD5024AC1B2121D116049
:103040007047000000380140FDF79EFFFFF781FD4B
:10305000FFF782FCFFF702FDFFF738FDFFF754FC96
:10306000FFF7C8FC4A4D002208212846FDF779FFEA
:10307000002220212846FDF774FF01221021284656
:10308000FDF76FFF434E002229153046FDF769FF1B
:103090000022E9143046FDF764FF0022A9143046EF
:1030A000FDF75FFF08213C48FEF7CCFD3A48006879
:1030B000C16841F00101C1603848FEF7DFFBFFF74E
:1030C000D7FA0122140221462846FDF74AFF0122C1
:1030D00041F6FF413046FDF744FF4FF4FA760BE02E
:1030E0002FA0FDF77BF83046FDF734FE32A0FDF748
:1030F00075F83046FDF72EFEFDF7E0FA0028EFD117
:1031000031A0FDF76BF8344802210222017003213F
:10311000417001460020FDF716FB2F490222891C51
:103120000020FDF7DEFAA946A2462C4FDFF8B0805A
:10313000DFF8B0B02C4D2D4C0026387868B1002255
:1031400051464846FDF70DFF3220FDF703FE0122F0
:1031500051464846FDF705FF3E7098F8001039B11A
:1031600023A0FDF73BF825A0DBF80010FDF736F8AB
:103170002978012903D124A0FDF730F82E702168A9
:103180000029DAD01BA0FDF729F82660D5E700005A
:10319000000C014000100140D000002088000020F9
:1031A000323443303220436865636B204661696C7A
:1031B0006564210D0A000000506C65617365204351
:1031C0006865636B210D0A0032344330322052654A
:1031D000616479210D0A0000000000200400002035
:1031E0000500002020000020060000202C00002008
:1031F0006B65793A25640D0A00000000BCFCD6B569
:10320000A3BA2536780D0A00766F6C746167653A4B
:1032100020256420560D0A0021F00042A2F16052E0
:10322000B2F5801F01F0004328BFD2F17F6C0BD9AB
:103230005FEA001C43EAC20242EB507018BF7047BD
:1032400028BF20F001007047B2F5801FBCBF1846B0
:1032500070474FEA410C1CF5001F02D2084600F0EF
:103260007ABA70B500F0C6F800000089FFF7F6BF23
:103270004FF00040A0F580007047B0FA80F310FADC
:1032800003F10AD0C3F11D0303F580634FEA4150F7
:103290004FEA035202EBD12170474FF00000704714
:1032A000DFF848C170B51CEA111E1EBF1CEA1315D9
:1032B0009EEA0C0F95EA0C0F00F06F8081EA030480
:1032C00023EA4C134EEAD47E21EA4C1141F48011DA
:1032D00043F48013AE44A1FB024CA0FB0365AEF1A6
:1032E0007F7E361955EB0C05A1FB034C4CF1000316
:1032F000A0FB021C16EB0C06654153F100030942CA
:1033000018BF46F0010613F4007F0BD14FEA0331DA
:103310004FEA0530340341EA155140EA16506FF088
:1033200003020AE04FEAC3214FEAC520F40241EA52
:10333000555140EA56506FF0020202EB2E4201EB6B
:10334000025585EACE710AD05FEA440C18BF24F01A
:10335000004450F1000041F1000120EAD47040F235
:10336000FE7C624500D270BDA84214BF4FF080447D
:103370004FF04044002E08BF0024BEF1806FA8BF6C
:10338000A1F1C041BDE8704080F282804FF00000A2
:1033900001F1C04101F0004170479EEA0C0F0CEAB8
:1033A000131518BF95EA0C0F06D04FF0000081EA04
:1033B000030E0EF0004170BD00F01CF88900013EC4
:1033C00000F007B800F009B84FEA430C5FEA5C5C14
:1033D00008D081EA030100F05BB84FEA410C5FEAD4
:1033E0005C5CF6D14FF00000014970470000FF0718
:1033F0000000F87F0EF1020E2EF0030E5EF8046B53
:10340000364205D4012A43EB030515F5001F12D8F7
:10341000012841EB010C1CF5001F0CD80ED14FEA1E
:10342000D17C15F5001F0CEB4C0C0CF1020C08BF05
:103430004CEBD37C04E04FF0080C01E04FEAD37C66
:103440000CEB4C0526FA05F606F00706B6F1040C5F
:1034500006D20EEB860CBDE870404CF0010C6047C4
:10346000DFE80CF0090B02024FF000414FF00000C2
:10347000A1F5002170BD19461046012851EB010449
:1034800018BFD4F5001484BF002001F0004170BDC6
:103490000808A0F500114FEA3101704790EA010FCA
:1034A00048BF81F0004100F16C81421A3CBF801A94
:1034B00089184FEAD0524FF07F4C1CEA410FA2EB23
:1034C000D15318BF9CEA026F00F03B804FF0004CD4
:1034D0004CEA00204CEA012121FA03FC10EB0C0C11
:1034E0001ED202F1FF325FEA1C2040EBC25038BF0F
:1034F00070471CF07F0F4FEA400C18BFBCF17F4FA4
:1035000038BF7047C3F12003994008BF20F0010085
:10351000BCF17F4F38BF7047A0F1C04000F01BB92D
:103520004FEA3C00000A40EBC25028BF1CF0FF0FDE
:103530004FEA400CE6D018BFBCF17F4F38BF704750
:10354000EAE79CEA026F05D010EA5C0F08BF00F0C2
:103550000040704710B500F0B8F800BF64FBBE3EF5
:10356000C10DD1F19E0206DB4FEA002343F0004378
:1035700023FA02F07047004207D54FEA4001B1F14B
:10358000FE4F02D24FF00000704710B500F09DF8DA
:1035900049922480002070476FEA200070470000A5
:1035A000B0FA80F310FA03F2C3F19D030AD0D905F3
:1035B00001EB1220530638BF704700F1010008BF2D
:1035C00020F00100704700004FF47F0C1CEAD0127D
:1035D0001EBF1CEAD11392EA0C0F93EA0C0F00F005
:1035E000478090EA010F48BF42F480724FF0004CD0
:1035F0004CEA00204CEA012102EB0302A0FB01137C
:10360000A2F50002002918BF43F001035B0028BFA8
:103610004FEA330342EB22425FEA132C4CEBC250D9
:103620002EBFBCEB436FB2F57C0F70474FEA036CC3
:10363000BCF1004F08BF20F00100B2F57C0F38BF8D
:1036400070470BD582F0FF0212F5803FC8BF70476C
:1036500000F1C040D8BF00F00040704700F5000CFA
:103660005FEA4C0C48BF7047B0F1C04000F073B83F
:1036700090EA010F0CEAD11348BF42F48072624510
:1036800038BF634504D280EA010000F00040704773
:1036900010B500F01AF800BF8900013E00F007B82D
:1036A00000F009B85FEA410C5FEA1C6C08D080EAC0
:1036B000010000F050B85FEA400C5FEA1C6CF6D1E4
:1036C0004FF00040A0F5800070470EF1020E2EF082
:1036D000030E5EF8044B244204D44FEA4102B2F1D7
:1036E0007F4F11D84FEA4003B3F17F4F0CD80ED172
:1036F0004FEAD07CB2F17F4F0CEB4C0C0CF1020C7A
:1037000008BF4CEBD17C04E04FF0080C01E04FEA1D
:10371000D17C0CEB4C0324FA03F404F00704B4F15D
:10372000040C06D20EEB840CBDE810404CF0010CEA
:103730006047DFE80CF0070802024FF00040A0F5F8
:10374000800010BD0846420018BFD2F1807288BFC9
:1037500000F0004010BDFF2141EAD050C005704785
:1037600080F0004090EA010F7FF59FAE81F00041AC
:1037700000F007B890EA010F48BF81F000413FF523
:1037800094AE421A04D882F00042A0EB0200114429
:103790004FEAD0524FF07F4C1CEA410FA2EBD153BD
:1037A00018BF9CEA026F4AD04FF0004C4CEA002050
:1037B0004CEA012121FA03FCB0EB0C0C0FD412F0FF
:1037C000FE0F36D05FEA4C001DD5001240EBC25010
:1037D00038BF70471CF03F0F18BF70470BE0A2F1D5
:1037E00001025FEA1C2040EBC25038BF70471CF05A
:1037F0007F0F18BF7047C3F12003994014BF401ECC
:1038000020F00100704780084FEA122308BF70477C
:10381000B0FA80FCA2EB0C02CCF1280C60FA0CF0A0
:1038200093EA122F04BF00EBC25070474FEAC370F7
:103830007047130A5FEADC1008BF7047F6E79CEA9E
:10384000026F04D010EA5C0F08BF0020704710B56B
:10385000FFF73BFF40DFF63E81F00040704700007D
:103860000000000000000102030406070809000030
:103870000000010203043031323334353637383931
:1038800041424344454640305800303132333435AC
:10389000363738396162636465664030780000000D
:1038A000C03800080000002058000000280100086F
:1038B000183900085800002068080000440100087A
:1038C00000000000000000050000000000FF0000F4
:1038D00000000000000000000000000000000000E8
:1038E00000000000000000000000000000000000D8
:1038F000FC60DAF266B6BEE0FEF6EE3E9C7A9E8E84
:1039000001000000000000000100000010000000A5
:08391000000000000024F40097
:04000005080000ED02
:00000001FF
