:020000040800F2
:1000000020050020010100081B210008191F00081D
:1000100019210008210900089D24000800000000A3
:100020000000000000000000000000001F21000888
:1000300023090008000000001D21000821210008FC
:100040001B0100081B0100081B0100081B01000820
:100050001B0100081B0100081B0100081B01000810
:100060001B0100081B0100081B0100081B01000800
:100070001B0100081B0100081B0100081B010008F0
:100080001B0100081B0100081B0100081B010008E0
:100090001B0100081B0100081B0100081B010008D0
:1000A0001B0100081B0100081B0100081B010008C0
:1000B000A12100081B0100081B0100081B0100080A
:1000C0001B0100081B0100081B0100081B010008A0
:1000D0001B0100081B0100081B0100081B01000890
:1000E0001B0100081B0100081B010008DFF80CD0F1
:1000F00000F078FB00480047AD2D000820050020E7
:100100000648804706480047FEE7FEE7FEE7FEE7B1
:10011000FEE7FEE7FEE7FEE7FEE7FEE79D210008BB
:10012000ED000008202A04DB203A21FA02F0002129
:10013000704721FA02F3D040C2F1200291400843F7
:1001400019467047D2B201E000F8012B491EFBD2DC
:1001500070470022F6E710B513460A4604461946D2
:10016000FFF7F0FF204610BD80EA010210B502F053
:100170000043400022D04A001FD0010E01EB126163
:10018000C0F35600C2F3560240F4000042F40002ED
:10019000A0FB022000047F39140400D0401C50EA68
:1001A000124001D44000491EC2B20C0604EBD0102C
:1001B000401C4008802A02D003E0002010BD20F03F
:1001C0000100002900DA0020184310BD420005D0CC
:1001D000C0F3C7525242914201DC0020704700EB4D
:1001E000C15070472DE9FE4F81EA030404F000443A
:1001F00021F0004100944FF0000B23F0004350EA3F
:1002000001045ED052EA03045BD0C3F30A54C1F385
:100210000A552C44A4F2F3340194A0FB0254C1F318
:10022000130141F48011C3F3130343F4801301FB62
:10023000024400FB034E840A970A44EA815447EAC9
:100240008357A4FB076802958D0A05FB07854FEAD3
:10025000932C04FB0C542705029D4FEA065847EAED
:100260001637B5EB08056EEB070C870E920E47EAC2
:10027000811742EA8312A7FB0201B6EB0B0164EB84
:1002800000042B0D43EA0C335E1844EB1C50DA4695
:100290005146E7FB0201C5F313044FEA0B3343EA6F
:1002A00014534FEA0432019C43EA0603A4F10C0400
:1002B0000294009CCDE900B400F0FFF803B0BDE863
:1002C000F08F00200146F9E770B521F000430343A9
:1002D0000CD0C1F30A550024D5EB040564EB0403EC
:1002E000D617AD1AB34102DB0020014670BD2018BD
:1002F00041EB025170BD96230022114600F0A0B8D8
:100300000EB540F2334102910021CDE900110A46B9
:100310000B4600F0D2F803B000BD20F00040C10D44
:10032000C0F3160040F400007F2901DA0020704776
:10033000962903DCC1F19601C84070479639884080
:10034000704700F0004230F000400AD0C10D01F5C6
:100350006071C0F3160042EA0151C2084007114320
:10036000704700200146704701F0004330B421F08F
:10037000004150EA010206D00A0DA2F56072C1F3F5
:100380001301002A02DC30BC00207047440F44EA0D
:10039000C104C100E01830BC00EBC25000F047B807
:1003A00030B50B46014600202022012409E021FA45
:1003B00002F59D4205D303FA02F5491B04FA02F542
:1003C0002844151EA2F10102F1DC30BD2DE9F05FD9
:1003D0000546002092469B468846064681464024B4
:1003E0001BE02846414647462246FFF79BFE534600
:1003F0005A46C01A914110D311461846224600F0C1
:1004000003FA2D1A67EB01084F462246012000210E
:1004100000F0FAF917EB00094E41201EA4F1010487
:10042000DFDC484631462A464346BDE8F09F0029B6
:10043000A8BF7047401C490008BF20F0010070476A
:1004400010B4B0FA80FC00FA0CF050EA010404BFCA
:1004500010BC704749B1CCF1200421FA04F411FA20
:100460000CF118BF012121430843A3EB0C01CB1D64
:100470004FEA00614FEA102042BF002010BC7047D5
:1004800000EBC35010440029A4BF10BC7047401CAF
:10049000490008BF20F0010010BC704710B5141EC1
:1004A00073F1000408DA401C41F1000192185B412D
:1004B0001A4301D120F0010010BD2DE9F04D924604
:1004C0009B4611B1B1FA81F202E0B0FA80F220321B
:1004D000904600F099F904460F4640EA0A0041EAC6
:1004E0000B0153465A46084313D0114653EA010004
:1004F00019D0C8F140025046FFF714FE05460E46DB
:1005000050465946424600F07FF9084305D0012085
:1005100004E020463946BDE8F08D0020054346EA58
:10052000E0762C4337430A986305E40AA0EB080001
:100530000022FD0A44EA47540A3002D50020014651
:10054000E9E7010510196941DDE90845001969412C
:10055000BDE8F04DA2E72DE9FE4F804681EA030099
:10056000C00F0C46009021F0004123F00045B8EB8D
:100570000200A94105D24046214690461C460B4642
:10058000024623F00040104347D0270DC7F30A006E
:10059000C3F30A510290401A019040286BDAC3F36A
:1005A000130040F4801B0098924620B10023D2EB48
:1005B000030A63EB0B0B01985946C0F14002504609
:1005C00000F022F906460D4650465946019A00F0C1
:1005D0002AF910EB08006141002487EA115284EAED
:1005E000E7731A4340D0009A62B3019A012A4FEA96
:1005F000075215DC001B61EB02014FF0004202EADA
:100600000752CDE90042001C41F5801132462B46CD
:10061000FFF753FF03B0BDE8F08F40462146F9E7EE
:10062000001B61EB0201001C41F5801300185B41C7
:100630002018A2F5001747EB030140EAD570B61960
:100640006D4111E06D084FEA360645EAC0754FEA84
:100650000752001B61EB0201001C41F580114908A3
:100660004FEA30000019514132462B4603B0BDE835
:10067000F04FFFF713BF0098012240000023D0EB9A
:10068000020263EBE073009821464FEAE074B8EB96
:10069000000061EB0401E9E783F000435BE781F0D0
:1006A000004158E72DE9F04D81EA030404F0004BC6
:1006B00021F0004514464FF0000A23F0004150EAB3
:1006C000050220D054EA01021DD0C5F30A570246A4
:1006D000C5F31303C1F31300C1F30A5640F48015A8
:1006E00043F48013A7EB0608101BD64608F2FD382A
:1006F00073EB050002D308F1010801E092185B4199
:10070000B8F1000F03DA00200146BDE8F08D0020AB
:100710004FF48011064684460EE0171B73EB050765
:1007200005D3121B63EB050306434CEA010C490891
:100730004FEA300092185B4150EA0107EDD152EACE
:10074000030012D082EA040083EA0501084305D0C1
:10075000101BAB4106D20122002306E000224FF01D
:10076000004302E06FF0010253101AEB06004CEB5D
:10077000085110EB0A0041EB0B01BDE8F04DFFF70B
:100780008DBEC1F30A52C1F3130140F2FF3341F4AD
:1007900080119A4202DA00200146704740F233434A
:1007A0009A42A2F2334202DC5242FFF7BBBC00F095
:1007B0002BB8000030B5041E71F1000404DB4FF0CB
:1007C0000044404264EB0101141E73F1000405DB98
:1007D0001C464FF00043524263EB0403994208BFAA
:1007E000904230BD064C074D06E0E06840F0010342
:1007F00094E8070098471034AC42F6D3FFF77AFC30
:10080000E02E0008002F0008202A04DB203A00FA1E
:1008100002F1002070479140C2F1200320FA03F357
:10082000194390407047202A06DBCB17203A41FA43
:1008300002F043EAE07306E041FA02F3D040C2F16D
:1008400020029140084319467047000070B50446E5
:1008500000688168C943C90717D1816821F0010187
:10086000816000F0C7FB05460AE000BF00F0C2FB54
:10087000401B022804D920688068C043C00706D006
:1008800020688068C043C007F0D0002070BDA06A17
:1008900040F01000A062E06A40F00100E062012038
:1008A00070BD0000F8B50026044600960068816817
:1008B000C943C9072DD0816841F001018160164804
:1008C00016490068B0FBF1F000E0401E00900028DF
:1008D000FBD100F08FFB054616E000BF00F08AFB5D
:1008E000401B022810D920688068C043C0070BD085
:1008F000A06A40F01000A062E06A40F00100E062EF
:1009000084F824600120F8BD20688068C043C007D7
:10091000E4D10020F8BD00001800002040420F0084
:10092000FEE7704772B6FEE710B5094800F0EEF931
:100930006421074800F04CF9054800F089F880056B
:1009400004D5034800F086F880B210BD002010BD29
:100950001C000020F8B50024009490F824202546BF
:10096000012A12D0012280F824204A681F23072A76
:100970000DD20668776B521E02EB820293409F43B2
:100980000B6893401F43776319E00220F8BD0668A7
:100990000D2A0AD2376BD21F02EB820293409F438B
:1009A0000B6893401F43376309E0F76A0D3A02EB87
:1009B000820293409F430B6893401F43F7620A688B
:1009C000072306680A2A0AD3F7680A3A02EB4202AA
:1009D00093409F438B6893401F43F76008E037695B
:1009E00002EB420293409F438B6893401F43376161
:1009F0000A68102A01D0112A20D1124B02689A42AB
:100A000017D193681B0219D4936843F400039360D1
:100A10000968102912D10C490C4A0968B1FBF2F19E
:100A200001EB8101490000E0491E00910029FBD142
:100A300004E0816A41F020018162012480F82450A1
:100A40002046F8BD002401401800002040420F005D
:100A5000806A70470068C06C704700002DE9F04163
:100A60004FF0000704003D467ED0A06A002628B95A
:100A7000E66284F82460204600F07EF82046FFF706
:100A8000E5FEA16A01F01001014304D0A06A40F024
:100A90001000A06268E0A16A21F4885141F00201CF
:100AA000A1626268E169237B0A4347EA43010A4382
:100AB000A1684FF48077B94208D0012906D00021FF
:100AC00094F814C0BCF1010F02D00AE03946F7E7F0
:100AD000F3B1A36A43F02003A362E36A43F0010386
:100AE000E3622368D3F804C02CF4694C4CEA010C8F
:100AF000C3F804C023689968DFF870C001EA0C01EC
:100B000011439960A168B9420BD0012909D00CE0CA
:100B1000DFF85CC0A3690CEB43330B4343F4006183
:100B2000DFE7218A0D05A5F580152168CB6A23F43E
:100B300070032B43CB62216889680E4B19409142A8
:100B400008D1E662A16A21F0020141F00101A1622F
:100B5000BDE8F081A06A20F0020040F01000A06221
:100B6000E06A40F00100E0620120F1E7FDF7E1FFFB
:100B700000E0FFFFFE0E1FFF00B585B000210091D1
:100B800001910291039100680E49884218D10E48E4
:100B9000816941F400718161816901F400710491FE
:100BA000816941F0080181618069694600F00800AF
:100BB00004900220009003200190044800F018F9EE
:100BC00005B000BD0024014000100240000C0140AF
:100BD0002DE9F84300270D460446009700F00AFA75
:100BE000804620688168C90508D5A06A40F02000C9
:100BF000A06284F824700120BDE8F8834168C9052B
:100C000003D4C06A10F4700F2AD0022000F090FACA
:100C10003B490968B1FBF0F62068036939490B428A
:100C20004FEA61014FEAA1121FD1C3684FEA611C6C
:100C300013EA0C0F19D103690B4225D1C068104289
:100C400022D1142023E0681C0AD02DB100F0D2F983
:100C5000A0EB0800A84203D920680068800725D5CA
:100C6000206800688007EED52DE003690B4202D1B1
:100C7000C168114206D0026923490A4206D1C06800
:100C8000084203D1542002E0292000E0FC20464322
:100C9000009816E0681C11D02DB100F0ABF9A0EB64
:100CA0000800A8420AD90098B04207D2A06A40F0D2
:100CB0000400A06284F8247003209DE70098401C83
:100CC0000090B042E6D321686FF012000860A06A7D
:100CD00040F40070A06220688068C0F3424007289A
:100CE0000CD1207B50B9A06A20F48070A062A06A69
:100CF000C00403D4A06A40F00100A06200207BE79A
:100D000018000020244992244992240070B504461A
:100D100090F8240001280DD0012084F824002046FA
:100D2000FFF7C0FD02004FF0000005D084F824005A
:100D3000104670BD022070BDA16A40F201239943A4
:100D400041F48071A1621F4D23681F49AB4218D145
:100D50000E6816F4702F14D0A66A46F48016A662A8
:100D60000E68760505D5A66A26F4005646F4805628
:100D7000A662A66AF6040AD5E66A26F00606E662C8
:100D800006E0A66A26F48016A6625E68E9E7E062DD
:100D900084F824006FF00200186020688368C3F3B1
:100DA0004243072B05D1A84208D1096811F4702FDE
:100DB00004D0816841F480118160B9E7816841F411
:100DC000A001F9E7002801400424014070B5044661
:100DD00000F010F90546601C02D004480078044475
:100DE00000F008F9401BA042FAD370BD0C000020AF
:100DF0002DE9F84FDFF8B891002409F1040A0AF14F
:100E0000040B23460F270BF1040EC9E00125A54072
:100E10002A40AA427DD1674ED1F804C0ACEB060847
:100E2000B44532D014DCBCF1030F3AD009DCBCF17C
:100E3000000F2AD0BCF1010F1CD0BCF1020F31D140
:100E40001DE0BCF1110F17D0BCF1120F2AD119E02F
:100E5000B8F5881F19D006DCB8F5803F15D0B8F575
:100E6000801F1FD111E0B8F5001F0ED0B8F5041F88
:100E700018D10AE0CB6815E0CB681B1D12E0CB68E7
:100E800008330FE0CB680C330CE08B682BB1012BDF
:100E90004FF0080303D0456104E0042302E005613C
:100EA00000E00023FF2A01D8064601E000F1040615
:100EB0004FEA840501D9A5F12005D6F8008007FA8C
:100EC00005FC28EA0C0803FA05F548EA0508C6F807
:100ED00000804D68ED0062D5374DAE6946F00106E1
:100EE000AE61AD6924F0030605F001050095334DB0
:100EF00006EB050CDCF80850A607360F07FA06F8D3
:100F000025EA0805DFF8B880404503D14FF0000816
:100F100017E044E0DFF8AC80404502D14FF0010813
:100F20000FE0DFF8A480404502D14FF0020808E04E
:100F3000DFF89880404502D14FF0030801E04FF000
:100F4000040808FA06F848EA0508CCF808804D6855
:100F5000D9F80060ED034D4601D5164300E09643F5
:100F60002E604D68DAF80060AD03554601D5164392
:100F700000E096432E604D68DBF80060ED025D46B0
:100F800001D5164300E096432E604D68DEF8006000
:100F9000AD02754601D5164300E096432E60641CF1
:100FA0000D682A46E5407FF431AFBDE8F88F0000B8
:100FB0000004014000001110001002400000014038
:100FC00000080140000C01400010014000140140E5
:100FD0008068084000D001207047C26821EA0203FF
:100FE0000A4043EA0241016170470AB1016170475A
:100FF0000904FBE701488068704700000C000020EE
:101000000248816802781144816070470C0000201A
:10101000074810B5016841F010010160032000F09D
:1010200075F80F2000F006F800F024F8002010BD3D
:101030000020024070B50D4D04464FF47A712878B7
:10104000B1FBF0F00A490968B1FBF0F000F0C6FB13
:1010500048B9102C07D200222146501E00F036F865
:1010600000206C6070BD012070BD00000C000020ED
:10107000180000200C4808B5816941F00101816128
:10108000816901F001010091C16941F08051C161A4
:10109000C06900F0805000900448416821F0E06190
:1010A00041F00071416008BD0010024000000140A5
:1010B000002809DB00F01F02012191404009800057
:1010C00000F1E020C0F8001170470000F0B40E4BB2
:1010D0001B680C46C3F30223C3F10705042D00D996
:1010E0000425191D072901D2002300E0DB1E01267B
:1010F00006FA05F1491E214099409E40761E164091
:101100003143F0BC01F0DCB90CED00E0064900F021
:10111000070208684FF6FF03184040EA0220034A1E
:1011200010430860704700000CED00E00000FA0575
:1011300010B529A401461DCC86B08DE81D002AA05B
:101140002A4C006804900020012923D002293AD0BB
:1011500010291DD161682268D20119D5C1F38342DB
:10116000C9031DF8020009D5616804AAC1F3404112
:10117000515C1F4AB2FBF1F1484301E01D4948436D
:101180006168490204D440005FF00301B0FBF1F054
:1011900006B010BD226AC2F30121012903D19207D2
:1011A00001D5C803F4E7022905D1626A920702D586
:1011B00049F64040ECE70329EAD121688903E7D5E5
:1011C0004FF22440E4E700F033F96168C1F3813164
:1011D000491C4900DAE70000020304050607080974
:1011E0000A0B0C0D0E0F101001020000001002403F
:1011F00000127A0000093D002DE9F8430546007809
:10120000354CC00754D0E0690026C00008D4E0691E
:1012100040F08050E061E069012600F080500090CD
:101220002E480168C90512D40168804641F48071D6
:101230000160FFF7DFFE074605E000BFFFF7DAFEBB
:10124000C01B642823D8D8F80000C005F6D5206A52
:1012500010F4407021D0A98801F4407181421CD063
:10126000206A1F49012220F440700A6000220A60AF
:101270002062C00711D0FFF7BDFE074641F2883853
:1012800008E000BFFFF7B6FEC11B414502D90320AD
:10129000BDE8F883206A8007F4D5206A696820F4E5
:1012A0004070084320621EB1E06920F08050E06188
:1012B0002878800705D56068A96820F44040084375
:1012C00060602878C00605D56068E96820F4800071
:1012D000084360600020DBE700100240007000401F
:1012E000400442422DE9F0470F46050061D0434ECD
:1012F000306800F00700B84209D2306820F00700DB
:1013000038433060306800F00700B84251D1286897
:101310003B4C810712D5400703D5606840F4E0607C
:1013200060602878000703D5606840F46050606012
:101330006068A96820F0F000084360602878C00762
:1013400028D06868012810D02168022810D08907A9
:1013500000292EDA616821F0030101436160FFF783
:1013600049FE804641F288390DE021688903EFE7A4
:101370008901EDE7FFF73EFEA0EB0801494502D9E0
:101380000320BDE8F0876068696800F00C00B0EBEE
:10139000810FEFD1306800F00700B8420BD93068F8
:1013A00020F0070038433060306800F00700B84292
:1013B00001D00120E5E72878400705D56068E96895
:1013C00020F4E060084360602878000706D5606874
:1013D000296920F4605040EAC100606000F038F8EC
:1013E0006168084AC1F30311515CC84006490860AE
:1013F00006480068FFF71EFE0020C2E700200240FA
:1014000000100240C82E0008180000201000002024
:101410000448054900684968044AC1F30221515C47
:10142000C84070471800002000100240D82E000865
:101430000448054900684968044AC1F3C221515C67
:10144000C84070471800002000100240D82E000845
:1014500012A185B00FC98DE80F0014A0144A0068CE
:1014600004905168134801F00C03042B10D0082B92
:101470000ED1C1F38343C9031DF803000AD5516897
:1014800004AAC1F34041515C0A4A5043B0FBF1F059
:1014900005B0704708494843FAE700000203040515
:1014A000060708090A0B0C0D0E0F101001020000B0
:1014B0000010024000127A0000093D002DE9F84FAB
:1014C000040070D02078C04DC00749D06868C0F3D0
:1014D0008100012807D06868C0F38100022809D183
:1014E0006868C00306D52868800339D5606800287D
:1014F000E7D035E06068B0F5803F0BD010B1B0F5B3
:10150000A02F11D0286820F480302860286820F4AB
:10151000802002E0286840F480302860606890B144
:10152000FFF768FD06460AE0286840F4802028603E
:10153000F0E700BFFFF75EFD801B642873D82868C2
:101540008003F7D50CE0FFF755FD064605E000BF28
:10155000FFF750FD801B6428F0D828688003F7D47B
:1015600020789A4E80074FF001094FF0000839D5D6
:10157000686810F00C0F07D06868C0F3810002287B
:1015800009D16868C00306D42868800714D520698B
:10159000012808D110E02069B0B1C6F80090FFF72B
:1015A00029FD074605E00AE1FFF724FDC01B0228DC
:1015B000C4D828688007F7D52868616920F0F8004A
:1015C00040EAC10028600DE0C6F80080FFF712FD78
:1015D000074604E0FFF70EFDC01B022823D8286849
:1015E0008007F7D4207800072CD57948A169D9B1B4
:1015F000C0F80090FFF7FEFC074604E0FFF7FAFC96
:10160000C01B02280FD8686A8007F7D571484FF4CD
:10161000FA510068B0FBF1F0009000BF0098411E45
:101620000091FAD20EE080E0C0F80080FFF7E2FC03
:10163000074604E0FFF7DEFCC01B022875D8686A85
:101640008007F7D42078400760D5E8690027C000FC
:1016500008D4E86940F08050E861E869012700F0AB
:10166000805000905C480168C90513D40168834626
:1016700041F480710160FFF7BDFC824606E000BFC7
:10168000FFF7B8FCA0EB0A0064284ED8DBF8000096
:10169000C005F5D5E06801280AD008B1052813D0A7
:1016A000286A20F001002862286A20F0040002E085
:1016B000286A40F001002862E06841F2883B98B156
:1016C000FFF798FC82460BE0286A40F0040028628D
:1016D000EEE700BFFFF78EFCA0EB0A0159455AD890
:1016E000286A8007F6D50CE0FFF784FC824605E007
:1016F000FFF780FCA0EB0A0159454CD8286A800707
:10170000F6D41FB1E86920F08050E861E06988B341
:101710006968C1F38101022944D00228C6F86080BB
:1017200004D0FFF767FC044638E034E0FFF762FCC2
:10173000074604E0FFF75EFCC01B02282BD8286890
:101740008001F7D4206AB0F5803F05D16868A168B0
:1017500020F4003008436860D4E908010843696850
:1017600021F4741108436860C6F86090FFF742FCEA
:10177000044606E025E000BFFFF73CFC001B022802
:1017800009D828688001F7D51BE000BFFFF732FCBD
:10179000001B022802D90320BDE8F88F28688001C9
:1017A000F4D40EE00128F7D06868226A00F4803192
:1017B000914204D1616A00F47010884201D0012086
:1017C000EAE70020E8E70000001002400000424283
:1017D00080044242180000200070004010B5401EF6
:1017E000B0F1807F01D3012010BD4FF0E024606193
:1017F0000F21601700F064FE0020A0610720206127
:10180000002010BD7047704770B590F83C20012A49
:1018100026D0012480F83C40022280F83D20036855
:101820005A689D6822F070060A6832435A600D4B70
:1018300002689A4208D0B2F1804F05D00A4B9A4212
:1018400002D00A4B9A4204D1496825F0800319431B
:10185000916080F83D40002180F83C10084670BD42
:10186000022070BD002C0140000400400008004030
:1018700010B5040003D094F83D0010B107E001203A
:1018800010BD002084F83C00204600F01FF8022024
:1018900084F83D00211D206800F088FC012084F8B8
:1018A000460084F83E0084F83F0084F8400084F845
:1018B000410084F8420084F8430084F8440084F82E
:1018C000450084F83D00002010BD000008B5006808
:1018D000B0F1804F12D10A48C16941F00101C161E4
:1018E000C069002200F00100009011461C20FFF7A3
:1018F000EDFBBDE808401C20FFF7DABB08BD000087
:101900000010024090F83D10012901D001207047DD
:10191000022180F83D100168CA6842F00102CA60E5
:1019200000680B49884208D0B0F1804F05D00949C2
:10193000884202D00849884204D1816801F0070139
:10194000062903D0016841F00101016000207047C1
:10195000002C0140000400400008004070B504461F
:1019600090F83C00012817D0012584F83C50022053
:1019700084F83D002068826822F0770222F47F42DA
:1019800082600868502830D00DDC20284DD005DC5E
:1019900098B310283BD148E0022070BD302844D0D5
:1019A000402834D139E0602828D0702806D0B0F51E
:1019B000805F2CD0B0F5005F29D10AE0CB68D1E977
:1019C0000121206800F035FC2068816841F0770132
:1019D00009E0CB68D1E90121206800F02AFC2068E9
:1019E000816841F48041816011E0CA6849682068DB
:1019F00000F0D4FC5021206807E016E0CA6849686E
:101A0000206800F0DCFC6021206800F01CFC84F8F9
:101A10003D50002084F83C0070BDCA6849682068C9
:101A200000F0BCFC40212068EFE722680146104628
:101A3000EBE7704770B50446006801694FF0000598
:101A4000C943890715D4C168C943890711D4E91E60
:101A5000016101202077206880698007204602D03C
:101A6000FFF7E7FF04E000F0C9F8204600F06CF94A
:101A7000257720680169C943490717D4C168C9435C
:101A8000490713D46FF00401016102202077206818
:101A9000806910F4407F204602D0FFF7CAFF04E0BF
:101AA00000F0ACF8204600F04FF925772068016976
:101AB000C943090716D4C168C943090712D46FF096
:101AC00008010161042020772068C0698007204652
:101AD00002D0FFF7AEFF04E000F090F8204600F0DF
:101AE00033F9257720680169C943C90617D4C1684D
:101AF000C943C90613D46FF0100101610820207793
:101B00002068C06910F4407F204602D0FFF791FFA3
:101B100004E000F073F8204600F016F925772068FD
:101B20000169C943C90708D1C168C943C90704D1BC
:101B3000891E0161204600F057F920680169C943F8
:101B4000090609D4C168C943090605D46FF08001AC
:101B500001612046FFF756FE20680169C943490626
:101B600009D4C168C943490605D46FF04001016139
:101B7000204600F067F920680169C94389060BD443
:101B8000C168C943890607D46FF02001016120466E
:101B9000BDE87040FFF737BE70BD000000B585B0EE
:101BA0000021009101910291039100680F49884240
:101BB0001AD10F48816941F010018161806969463D
:101BC00000F010000490402000900220019003904B
:101BD0000848FFF70DF90848416821F4406141F0D9
:101BE000E06141F44061416005B000BD0004004087
:101BF000001002400010014000000140704770B525
:101C0000044690F83C000D4601280AD0012084F8D3
:101C10003C0042B1042A18D0082A2AD00C2A4DD1FF
:101C200039E0022070BD206800F016FB2068816951
:101C300041F0080181612068816921F0040181611E
:101C4000206881692A69114311E0206800F02CFBAB
:101C50002068816941F4006181612068816921F413
:101C600080618161206881692A6941EA022181617C
:101C700024E0206800F044FB2068C16941F00801BD
:101C8000C1612068C16921F00401C1612068C16996
:101C90002A69114311E0206800F05EFB2068C169E9
:101CA00041F40061C1612068C16921F48061C161B2
:101CB0002068C1692A6941EA0221C161002084F8D3
:101CC0003C0070BD10B5040003D094F83D0010B185
:101CD00007E0012010BD002084F83C00204600F001
:101CE0001FF8022084F83D00211D206800F05EFAF4
:101CF000012084F8460084F83E0084F83F0084F810
:101D0000400084F8410084F8420084F8430084F8DD
:101D1000440084F8450084F83D00002010BD000018
:101D200008B500680649884208D10648C16941F0F3
:101D30000201C161C06900F00200009008BD00000E
:101D400000040040001002407047000010B5044637
:101D5000022249B104290ED0082913D094F8410079
:101D6000012816D0012010BD94F83E000128F9D1B9
:101D700084F83E200FE094F83F000128F2D184F867
:101D80003F2008E094F840000128EBD184F840207F
:101D900001E084F841200122206800F03DFA0F495B
:101DA0002068884203D1426C42F4004242642068B9
:101DB000884208D0B0F1804F05D00949884202D04E
:101DC0000849884204D1816801F00701062903D03F
:101DD000016841F001010160002010BD002C0140AC
:101DE000000400400008004010B50068B0F1804FCA
:101DF0001BD10E480E4C0068B0F17E5F02DD0D492C
:101E000088420BDB01210C48FFF7E7F82078012816
:101E100006D101020948FFF7E0F801E00120207037
:101E200007496FF001000968086110BD0400002037
:101E3000000000200000204000100140000C014084
:101E40004C000020704770B5040004D094F83D00A9
:101E5000002510B106E0012070BD84F83C502046FA
:101E600000F022F8242084F83D002068C16821F4A5
:101E70000051C160204600F0B5FA2068016921F4E4
:101E8000904101612068416921F02A014161206887
:101E9000C16841F40051C1602564202084F83D00F0
:101EA00084F83E00002070BD30B585B00024009459
:101EB00001940294039400681449884224D1144880
:101EC000816941F480418161816901F4804104911B
:101ED000816941F00401816180690E4D00F00400C8
:101EE00004904FF4007000900220019003200390B2
:101EF00069462846FEF77CFF2815CDE900046946AF
:101F000028460294FEF774FF05B030BD003801404A
:101F10000010024000080140FEE700003EB500242A
:101F200011480094019402940E4984600160047386
:101F30000475012505614FF460214460C161FEF71D
:101F40008DFD08B1FEF7EEFC0920CDE900056946DC
:101F500002940548FEF7FEFC002801D0FEF7E2FCE3
:101F60003EBD0000002401401C0000202DE9F0438C
:101F700085B000242148009401940294039481695F
:101F800041F010018161816901F0100104918169C2
:101F900041F008018161816901F0080104918169C2
:101FA00041F0040181618069DFF8548000F0040091
:101FB00040F201150490002229464046FFF715F82B
:101FC000DFF840906F1E002239464846FFF70DF8B3
:101FD0000095022601250396CDE901546946404645
:101FE000FEF706FF00970396CDE90154694648467F
:101FF000FEF7FEFE05B0BDE8F083000000100240D1
:1020000000100140000C014010B586B000241748B4
:10201000009401940294039404944FF08041059439
:10202000016041F6FF01C0E9011442F20F71C0E9FD
:1020300003148461FFF71CFC08B1FEF773FC4FF436
:102040008050009069460948FFF788FC08B1FEF708
:1020500069FC049404A905480594FFF7D5FB002802
:1020600001D0FEF75FFC06B010BD00004C00002060
:1020700010B58AB0002407941C2168460894FEF726
:1020800068F81648144901603F21C0E9011440F284
:10209000E731C0E903148461FFF714FE08B1FEF7CD
:1020A00041FC079407A90D480894FFF7ADFB08B160
:1020B000FEF738FC6020CDE9000402940022694656
:1020C00006480494FFF79BFD08B1FEF72BFC03487C
:1020D000FFF764FD0AB010BD00040040940000202A
:1020E0000C4810B50A4901604FF4E131416000210C
:1020F00081600C22C160C0E904128161C161FFF7F7
:10210000A2FE002803D0BDE81040FEF70BBC10BDB6
:1021100000380140DC000020FEE7FEE77047704712
:10212000FEF76EBF30B593B028216846FEF711F870
:1021300014210AA8FEF70DF80024022501200F94AF
:10214000049000951020059012944FF46010CDE992
:1021500008401194109407956846FFF7AFF908B14D
:1021600072B6FEE70F20CDE90A054FF48060CDE995
:102170000C4002210AA80E94FFF7B4F808B172B619
:10218000FEE74FF4404011900F950FA8FFF734F889
:10219000002801D072B6FEE713B030BD70470000D2
:1021A0000148FFF747BC00004C000020F0B5026872
:1021B000164B174C174D4FF08047984205D0B84248
:1021C00003D0A04201D0A84203D122F070064A6891
:1021D0003243984205D0B84203D0A04201D0A84271
:1021E00003D122F44074CA6822434C6922F0800271
:1021F000224302608A68C2620A688262984201D100
:102200000969016301214161F0BD0000002C01401A
:10221000000400400008004010B501F01F03012138
:10222000046A99408C430462016A9A401143016236
:1022300010BD10B5846842EA032224F47F440A43A7
:102240002243826010BD826822F070020A4342F08D
:10225000070181607047000030B5026A22F0010278
:102260000262026A4368846924F073050C682C4397
:1022700022F002058A682A430A4DA8420BD122F0B7
:102280000805CA6823F440732A434D6922F004020A
:102290001D438B692B43436084614968416302623B
:1022A00030BD0000002C014030B5026A22F010025F
:1022B0000262026A436884690D6824F4E64444EAD1
:1022C00005248D6822F0200242EA05120B4DA84237
:1022D0000ED1CD6822F0800242EA05124D6923F446
:1022E000406343EA85038D6922F0400243EA850397
:1022F0004360846149688163026230BD002C014003
:1023000030B5026A22F480720262036A4268C469CC
:1023100023F4007324F073050C682C438D6843EAA2
:1023200005230C4DA8420ED1CD6823F4006343EA87
:1023300005234D6922F4405242EA05128D6923F4C7
:10234000806342EA05124260C4614968C163036266
:1023500030BD0000002C014030B5026A22F48052EA
:102360000262046A4268C3690D6823F4E64343EAE3
:1023700005238D6824F4005444EA0534064DA84230
:1023800004D14D6922F4804242EA85124260C36161
:1023900049680164046230BD002C014010B5036A35
:1023A000046A24F001040462846924F0F00444EA1D
:1023B000021423F00A020A438461026210BD10B5C0
:1023C000036A23F0100303628369046A23F47043F1
:1023D00043EA023224F0A00343EA01118261016260
:1023E00010BD000070B5044600680169E26821F480
:1023F0004051114301612169A068084361690843A4
:102400002168CA6841F20C639A430243CA6020689B
:102410004169A26921F44071114341611E4920685C
:10242000884202D1FFF704F801E0FEF7F1FF00EB6C
:10243000C00101EB0012606864218000B2FBF0F380
:10244000B3FBF1F36FF018067343B2FBF0F5B2FB88
:10245000F0F605EB8305322303EB0515B5FBF1F52B
:10246000B6FBF1F605F0F00505EB0615B2FBF0F64C
:10247000B2FBF0F0B0FBF1F06FF01802504306EB46
:10248000800003EB0010B0FBF1F0216800F00F00BA
:102490002844886070BD000000380140FEE700005D
:1024A0000FB4054B10B503A9044A029800F0DAF8FE
:1024B00010BC5DF814FB0000952D000808000020FA
:1024C0000907090E002804DB00F1E02080F8001461
:1024D000704700F00F0000F1E02080F8141D7047F5
:1024E00002E008C8121F08C1002AFAD170477047DD
:1024F000002001E001C1121F002AFBD1704700003B
:102500002DE9FF5FDDE90220010DDDF838B002435F
:1025100018D044F61050A1F2FF3141430D140F982A
:10252000012820D0A5EB0B00401C5FEA000A4FF009
:102530000004474EDFF81C91A046504616D5CAF15C
:10254000000728E00F98012443A2012808D00021A9
:1025500000980F9BC0E90021C0E90243BDE8FF9F3E
:102560006FEA0B01F4E7CBF10000DEE7074612E06B
:10257000F80707D02246334640464946FDF732FE6B
:10258000804689462246334610461946FDF72AFE04
:1025900004460E467F10002FEAD1DDE90201BAF1B0
:1025A000000F42464B4602DAFDF71CFE01E0FEF743
:1025B00079F804460E460022284BFEF7FBF803D8B4
:1025C0004FF0FF30014607E00022254B2046314600
:1025D000FDF7C1FFFEF7D5F8102409E0002C0ADB57
:1025E0000A220023FDF7F2FE019B30321A55641EC9
:1025F00050EA0102F2D1641C019AC4F1110314449F
:102600000F9A012A03D0012208430DD10AE00843A2
:1026100004D000204FF0110B0F9080E7A3EB0B05C7
:102620006D1E0DE05B4504DD4FF0000205F1010574
:1026300004E003DA4FF00002A5F10105002AECD016
:1026400000980F99C0E90231C0E9004586E7000013
:10265000000024400000F03F300000000000F04384
:102660000000E03F2DE9FF4F95B09B4689460646A6
:1026700000250FE2252877D100242746F84A0121BA
:10268000059400E0044316F8013F203B01FA03F0F3
:102690001042F7D130782A2811D06FF02F0330780C
:1026A000A0F13002092A16D8059A44F0020402EB80
:1026B000820203EB42021044761C0590EFE759F8C2
:1026C000042B0592002A03DA504244F4005405908A
:1026D00044F00204761C30782E2816D116F8010F2B
:1026E00044F004042A280DD06FF02F023078A0F1B6
:1026F0003003092B09D807EB870302EB4303C71804
:10270000761CF3E759F8047B761C30786C280FD0E0
:1027100006DC4C2817D068280DD06A2814D104E0B4
:10272000742810D07A280FD10DE044F400140AE088
:1027300044F4801401E044F440147278824202D1DF
:1027400004F58014761C761C307866280BD013DCD8
:10275000582877D009DC002875D04528F6D04628BF
:10276000F4D047281AD19DE118E0632835D06428B9
:1027700079D0652812D195E1702873D008DC6728DC
:10278000F1D069286FD06E280DD06F2806D1B5E042
:1027900073282CD0752875D0782874D05A4617998C
:1027A00090476D1C75E1C4F30250022809D003283C
:1027B0000DD0D9F8001004280DD00D6009F10409DE
:1027C00067E1D9F80010EA17C1E90052F6E7D9F835
:1027D00000100D80F2E70D70F0E719F8041B8DF87A
:1027E000001000208DF80100EA46012003E059F8AE
:1027F00004AB4FF0FF3061074FF0000102D40DE051
:1028000008F101018846B9420FDA8045F8DB1AF871
:1028100008100029F4D108E008F10101884681423E
:10282000FADB1AF808100029F6D105985B46A0EBF0
:10283000080721463846179A00F094FA284400EB1E
:10284000080507E04DE029E10DE01AF8010B5A46B2
:1028500017999047B8F10108F7D25B4621463846F0
:10286000179A13E142E00A220092C4F302524FF099
:10287000000A022A08D059F804CB032A4FEAEC7167
:102880000AD00DE029E02AE009F1070121F0070252
:10289000F2E802C1914609E00FFA8CFC4FEAEC71B4
:1028A000042A03D14FFA8CFC4FEAEC71002907DAB5
:1028B0000A460021DCF1000C61EB02012D2202E04E
:1028C000220504D52B228DF80420012203E0E20723
:1028D00001D02022F7E7904659E00A2102E01022B9
:1028E0000DE010214FF0000A00910BE010224FF094
:1028F000000A44F004040827009203E008224FF085
:10290000000A0092C4F30252022A05D059F804CBFF
:102910000021032A08D009E009F1070121F007028C
:10292000F2E802C1914605E01FFA8CFC042A01D1AD
:102930000CF0FF0C4FF00008220728D5702806D0B5
:10294000009B83F0100353EA0A0305D00EE04022F7
:102950008DF80420012208E05CEA010206D0302252
:102960008DF804208DF8050002229046009B83F02C
:10297000080353EA0A030AD15CEA010201D16207A3
:1029800005D530228DF804204FF001087F1E58280D
:1029900004D034A003900EA802900DE036A0F9E711
:1029A00053466046009AFDF711FD84460398825C09
:1029B0000298401E029002705CEA0100F0D1029879
:1029C00006A9081A00F1200A600702D524F4803411
:1029D00000E00127574502DDA7EB0A0000E00020D8
:1029E00000EB0A01009005984144401A0590E0036D
:1029F00006D45B462146179A059800F0B3F90544C2
:102A0000002706E001A85A46C05D179990476D1C43
:102A10007F1C4745F6DBE0030CD55B462146179A41
:102A2000059800F09FF9054404E030205A461799B4
:102A300090476D1C0099481E00900029F5DC08E0C5
:102A4000029802995A460078491C029117999047BA
:102A50006D1CBAF10001AAF1010AF1DC65E1000088
:102A60000928010030313233343536373839616264
:102A70006364656600000000303132333435363728
:102A800038394142434445460000000000F058F9FF
:102A90000544761C307800287FF4ECAD19B0284648
:102AA000BDE8F08F620700D4062709F1070222F083
:102AB000070CFCE80223E14603F000485FEA080C3B
:102AC00002D00FF2702C0DE05FEA045C02D50FF229
:102AD000682C07E05FEAC47C02D00FF2602C01E0B2
:102AE000AFF2700C4FF0FF3823F00043CDF850C028
:102AF00065280CD006DC452809D046281DD047287B
:102B00003DD13DE0662818D067287ED138E000210D
:102B1000112F01DB112000E0781CCDE9000106A98E
:102B20000EA8FFF7EDFCDDE90F010E9A03910021DD
:102B3000009207F1010A04914DE04FF00040009728
:102B4000CDE9011006A90EA8FFF7DAFCDDE90F02B6
:102B500003920E9B11990022DDF80CA000930492C1
:102B600011B9791C00EB010AB7EB0A0004D4C0F1DB
:102B7000FF3007F1010A0490AAEB0700019044E03E
:102B8000012F00DA01270021112F01DD112000E0C3
:102B90003846CDE9000106A90EA8FFF7B1FCDDE932
:102BA0000F010E9A0391002104910092BA46210769
:102BB0000CD40399514500DA8A46BAF1010F05DDBC
:102BC000009AAAF10101515C302908D0B84202DA1A
:102BD00010F1040F06DA0121CDE9011015E0AAF188
:102BE0000101E9E7002805DC049901440491AAEBFE
:102BF000000102E0411C514500DD8A460499401A5B
:102C0000401C01904FF000400290200704D401982E
:102C1000504501DBCDF8048000208DF84F0002986C
:102C20000DF14F07B0F1004F25D02B200E900298E8
:102C30004FF0020800280CDA404202902D200E903E
:102C400007E00A210298FDF7ABFB3031029007F84C
:102C5000011DB8F10001A8F10108F2DC029800287A
:102C6000EFD1791E0E980870307800F0200040F007
:102C7000450007F8020D12A8C01B00F107081498C0
:102C8000007800B1012000EB0A01019801EBE0712E
:102C900005984144401A401E0590E00306D45B4667
:102CA0002146179A059800F05DF8054414980078BD
:102CB00018B15A46179990476D1CE00324D55B461E
:102CC0002146179A059800F04DF805441CE0049839
:102CD000002807DBDDE90301884203DD0098405C42
:102CE000179901E0179930205A469047049805F14A
:102CF0000105401C04900198401E019004D12E2033
:102D00005A46179990476D1CBAF10001AAF1010AC1
:102D1000DDDC05E017F8010B5A46179990476D1C4A
:102D2000B8F10001A8F10108F4DC5B462146179ACE
:102D30000598ABE62D0000002B00000020000000ED
:102D40002DE9F041044600251E461746880404D4A8
:102D500005E039462020B0476D1C641EF9D5284691
:102D6000BDE8F0812DE9F041044600251E4690465D
:102D7000C80301D5302700E02027880404D505E0EA
:102D800041463846B0476D1C641EF9D52846BDE85B
:102D9000F081000004490A685206FCD5024AC1B21B
:102DA000121D11607047000000380140FEF730F935
:102DB000FFF7B8F9FFF7DAF8FFF792F9FFF7AEF887
:102DC000FFF756F9FFF720F93248FEF79BFD31482F
:102DD0000068C16841F00101C16000212E48FEF782
:102DE000B5FF0122DFF8B4B0160231465846FEF7AF
:102DF000FCF82B4C012211462046FEF7F6F8012282
:102E000031462046FEF7F1F8DFF88C906FF00B07A3
:102E1000DFF890A0DFF89080FDF786FD0546FDF70E
:102E20006AFA3946FDF7D2F92049FDF79DF9FDF719
:102E300074FAD9F8001048632846FDF761FA4FF09C
:102E400066325346FDF7CEF93A46FDF73DFAFDF7F7
:102E50008BFA4546C8F80400FDF773FA02460B46A4
:102E600013A0FFF71DFB31462046FEF7B1F80028FE
:102E7000D2D131462046FEF7ABF80028F9D0052024
:102E8000FDF7A4FF012231465846FEF7AEF80020B8
:102E90002870C1E74C00002094000020000C014085
:102EA0000010014066660A400000002000C079441E
:102EB000B5B1C7B0B5E7D1B9CEAAA3BA252E32664F
:102EC00020560D0A00000000000000000000000075
:102ED00001020304060708090000000001020304C0
:102EE000002F0008000000201C000000E024000863
:102EF0001C2F00081C00002004050000F02400081E
:102F000001000000000000000000000001000000BF
:0C2F100010000000000000000024F4008D
:04000005080000ED02
:00000001FF
