:020000040800F2
:100000006005002001010008CB120008051000085F
:10001000C9120008810200088915000800000000CC
:10002000000000000000000000000000CF120008E7
:100030008302000800000000CD120008D112000861
:100040001B0100081B0100081B0100081B01000820
:100050001B0100081B0100081B0100081B01000810
:100060001B0100081B0100081B0100081B01000800
:100070001B0100081B0100081B0100081B010008F0
:100080001B0100081B0100081B0100081B010008E0
:100090001B0100081B0100081B0100081B010008D0
:1000A0001B0100081B0100081B0100081B010008C0
:1000B0001B0100081B0100081B0100081B010008B0
:1000C0001B0100081B0100081B0100081B010008A0
:1000D0001B0100087D1500081B0100081B0100081A
:1000E0001B0100081B0100081B010008DFF80CD0F1
:1000F00000F040F800480047A11700086005002004
:100100000648804706480047FEE7FEE7FEE7FEE7B1
:10011000FEE7FEE7FEE7FEE7FEE7FEE73113000835
:10012000ED000008D2B201E000F8012B491EFBD21D
:1001300070470022F6E710B513460A4604461946F2
:10014000FFF7F0FF204610BD30B50B4601460020FA
:100150002022012409E021FA02F59D4205D303FA89
:1001600002F5491B04FA02F52844151EA2F101020A
:10017000F1DC30BD064C074D06E0E06840F00103BD
:1001800094E8070098471034AC42F6D3FFF7B2FF6B
:10019000C4180008E418000810B5FF2000F020F88B
:1001A00055280AD05521FF2000F04BF8FF2000F021
:1001B00017F8552801D0012010BD002010BD70B5E2
:1001C00014460D46064608E03046711C8EB200F01B
:1001D00007F8641E05F8010BA4B2002CF4D170BD21
:1001E00010B5044600F0B6FF200AA02101EB400044
:1001F000C0B200F07FFF00F0EFFFE0B200F07AFF46
:1002000000F0EAFF00F0A6FFA12000F073FF00F06D
:10021000E3FF002000F038FF044600F0BBFF20465B
:1002200010BD70B516460C46054606E021782846F6
:1002300000F007F86D1CADB2641C761EB6B2F5D2A4
:1002400070BD70B50D46044600F084FF200AA02161
:1002500001EB4000C0B200F04DFF00F0BDFFE0B286
:1002600000F048FF00F0B8FF284600F043FF00F020
:10027000B3FF00F08FFFBDE870400A2000F074B8B3
:10028000FEE7704772B6FEE710B590F82110002225
:10029000022905D00421816380F82020012010BDAF
:1002A00001680B6823F00E030B6001680B6823F0F4
:1002B00001030B6090F84030C46B012101FA03F395
:1002C000636080F8211080F82020104610BD0000E7
:1002D00010B590F821100024022903D00421816375
:1002E00001243DE001680A6822F00E020A600168FC
:1002F0000A6822F001020A601A4A0168914201D19B
:10030000012121E0174A1432914201D110211BE052
:10031000144A2832914201D1891515E0114A3C3224
:10032000914201D189140FE00E4A5032914202D11C
:100330004FF4803108E00B4A6432914202D14FF40D
:10034000801101E04FF08071064A083A51600121A6
:1003500080F82110002180F82010416B01B18847FE
:10036000204610BD0800024070B5044600F004F9B4
:100370000546601C02D004480078044400F0FCF8F4
:10038000401BA042FAD370BD080000202DE9F84FB1
:10039000DFF8B891002409F1040A0AF1040B23469E
:1003A0000F270BF1040EC9E00125A5402A40AA42FF
:1003B0007DD1674ED1F804C0ACEB0608B44532D00D
:1003C00014DCBCF1030F3AD009DCBCF1000F2AD0D9
:1003D000BCF1010F1CD0BCF1020F31D11DE0BCF10A
:1003E000110F17D0BCF1120F2AD119E0B8F5881FF0
:1003F00019D006DCB8F5803F15D0B8F5801F1FD1A5
:1004000011E0B8F5001F0ED0B8F5041F18D10AE0AE
:10041000CB6815E0CB681B1D12E0CB6808330FE0FA
:10042000CB680C330CE08B682BB1012B4FF0080329
:1004300003D0456104E0042302E0056100E00023ED
:10044000FF2A01D8064601E000F104064FEA8405C0
:1004500001D9A5F12005D6F8008007FA05FC28EAA5
:100460000C0803FA05F548EA0508C6F800804D684F
:10047000ED0062D5374DAE6946F00106AE61AD695B
:1004800024F0030605F001050095334D06EB050C3D
:10049000DCF80850A607360F07FA06F825EA080523
:1004A000DFF8B880404503D14FF0000817E044E082
:1004B000DFF8AC80404502D14FF001080FE0DFF8D3
:1004C000A480404502D14FF0020808E0DFF8988090
:1004D000404502D14FF0030801E04FF0040808FA4C
:1004E00006F848EA0508CCF808804D68D9F800609D
:1004F000ED034D4601D5164300E096432E604D684E
:10050000DAF80060AD03554601D5164300E0964386
:100510002E604D68DBF80060ED025D4601D51643A4
:1005200000E096432E604D68DEF80060AD0275462F
:1005300001D5164300E096432E60641C0D682A46E0
:10054000E5407FF431AFBDE8F88F000000040140C2
:10055000000011100010024000000140000801409E
:10056000000C014000100140001401400AB101617B
:1005700070470904FBE700000148806870470000ED
:1005800008000020024881680278114481607047A9
:1005900008000020074810B5016841F01001016013
:1005A000032000F075F80F2000F006F800F024F8A2
:1005B000002010BD0020024070B50D4D04464FF4E0
:1005C0007A712878B1FBF0F00A490968B1FBF0F0C4
:1005D00000F0ECFA48B9102C07D200222146501E38
:1005E00000F036F800206C6070BD012070BD000086
:1005F00008000020140000200C4808B5816941F073
:1006000001018161816901F001010091C16941F03D
:100610008051C161C06900F0805000900448416879
:1006200021F0E06141F00071416008BD001002401E
:1006300000000140002809DB00F01F020121914069
:100640004009800000F1E020C0F800117047000070
:10065000F0B40E4B1B680C46C3F30223C3F107052D
:10066000042D00D90425191D072901D2002300E01B
:10067000DB1E012606FA05F1491E214099409E40E5
:10068000761E16403143F0BC00F090BF0CED00E048
:10069000064900F0070208684FF6FF03184040EAD9
:1006A0000220034A10430860704700000CED00E090
:1006B0000000FA052DE9F0470F46050061D0434ED2
:1006C000306800F00700B84209D2306820F0070017
:1006D00038433060306800F00700B84251D12868D4
:1006E0003B4C810712D5400703D5606840F4E060B9
:1006F00060602878000703D5606840F4605060604F
:100700006068A96820F0F000084360602878C0079E
:1007100028D06868012810D02168022810D08907E5
:1007200000292EDA616821F0030101436160FFF7BF
:1007300023FF804641F288390DE021688903EFE705
:100740008901EDE7FFF718FFA0EB0801494502D941
:100750000320BDE8F0876068696800F00C00B0EB2A
:10076000810FEFD1306800F00700B8420BD9306834
:1007700020F0070038433060306800F00700B842CE
:1007800001D00120E5E72878400705D56068E968D1
:1007900020F4E060084360602878000706D56068B0
:1007A000296920F4605040EAC100606000F038F828
:1007B0006168084AC1F30311515CC84006490860EA
:1007C00006480068FFF7F8FE0020C2E7002002405C
:1007D00000100240AC180008140000200C0000209B
:1007E0000448054900684968044AC1F30221515C84
:1007F000C84070471400002000100240BC180008D8
:100800000448054900684968044AC1F3C221515CA3
:10081000C84070471400002000100240BC180008B7
:1008200012A185B00FC98DE80F0014A0144A00680A
:1008300004905168134801F00C03042B10D0082BCE
:100840000ED1C1F38343C9031DF803000AD55168D3
:1008500004AAC1F34041515C0A4A5043B0FBF1F095
:1008600005B0704708494843FAE700000203040551
:10087000060708090A0B0C0D0E0F101001020000EC
:100880000010024000127A0000093D002DE9F84FE7
:10089000040070D02078C04DC00749D06868C0F30C
:1008A0008100012807D06868C0F38100022809D1BF
:1008B0006868C00306D52868800339D560680028B9
:1008C000E7D035E06068B0F5803F0BD010B1B0F5EF
:1008D000A02F11D0286820F480302860286820F4E8
:1008E000802002E0286840F480302860606890B181
:1008F000FFF742FE06460AE0286840F480202860A0
:10090000F0E700BFFFF738FE801B642873D8286823
:100910008003F7D50CE0FFF72FFE064605E000BF89
:10092000FFF72AFE801B6428F0D828688003F7D4DC
:1009300020789A4E80074FF001094FF0000839D512
:10094000686810F00C0F07D06868C0F381000228B7
:1009500009D16868C00306D42868800714D52069C7
:10096000012808D110E02069B0B1C6F80090FFF767
:1009700003FE074605E00AE1FFF7FEFDC01B022863
:10098000C4D828688007F7D52868616920F0F80086
:1009900040EAC10028600DE0C6F80080FFF7ECFDDA
:1009A000074604E0FFF7E8FDC01B022823D82868AB
:1009B0008007F7D4207800072CD57948A169D9B1F0
:1009C000C0F80090FFF7D8FD074604E0FFF7D4FD1C
:1009D000C01B02280FD8686A8007F7D571484FF40A
:1009E000FA510068B0FBF1F0009000BF0098411E82
:1009F0000091FAD20EE080E0C0F80080FFF7BCFD65
:100A0000074604E0FFF7B8FDC01B022875D8686AE6
:100A10008007F7D42078400760D5E8690027C00038
:100A200008D4E86940F08050E861E869012700F0E7
:100A3000805000905C480168C90513D40168834662
:100A400041F480710160FFF797FD824606E000BF28
:100A5000FFF792FDA0EB0A0064284ED8DBF80000F7
:100A6000C005F5D5E06801280AD008B1052813D0E3
:100A7000286A20F001002862286A20F0040002E0C1
:100A8000286A40F001002862E06841F2883B98B192
:100A9000FFF772FD82460BE0286A40F004002862EE
:100AA000EEE700BFFFF768FDA0EB0A0159455AD8F1
:100AB000286A8007F6D50CE0FFF75EFD824605E068
:100AC000FFF75AFDA0EB0A0159454CD8286A800768
:100AD000F6D41FB1E86920F08050E861E06988B37E
:100AE0006968C1F38101022944D00228C6F86080F8
:100AF00004D0FFF741FD044638E034E0FFF73CFD49
:100B0000074604E0FFF738FDC01B02282BD82868F1
:100B10008001F7D4206AB0F5803F05D16868A168EC
:100B200020F4003008436860D4E90801084369688C
:100B300021F4741108436860C6F86090FFF71CFD4B
:100B4000044606E025E000BFFFF716FD001B022863
:100B500009D828688001F7D51BE000BFFFF70CFD1E
:100B6000001B022802D90320BDE8F88F2868800105
:100B7000F4D40EE00128F7D06868226A00F48031CE
:100B8000914204D1616A00F47010884201D00120C2
:100B9000EAE70020E8E700000010024000004242BF
:100BA00080044242140000200070004010B5401E36
:100BB000B0F1807F01D3012010BD4FF0E0246061CF
:100BC0000F21601700F0F2FC0020A06107202061D7
:100BD000002010BD70477047F8B5026804461068E1
:100BE000D168536910F00F0F4FF0000554D003F097
:100BF000010601F4907737435FD0C20705D0CA05DC
:100C000003D5226C42F001022264420705D5DA07BF
:100C100003D0226C42F002022264820705D5DA0773
:100C200003D0226C42F004022264020707D501F0CF
:100C30002002324303D0226C42F008022264226C6C
:100C4000002A35D0800604D5880602D5204600F05B
:100C500090FB20684069216CC0F3801001F008010E
:100C60000143204625D000F06CFB2068416949060D
:100C70001BD5416921F040014161A06BA8B15849E1
:100C80004163A06BFFF724FB002811D0A06B416BE0
:100C900001B0BDE8F040084783060ED58B060CD5A1
:100CA0002046BDE8F84000F064BB2046FFF793FF04
:100CB000F8BDFFF790FF2564F8BD266B2023012EB9
:100CC00052D1C60650D5CE064ED510685068009059
:100CD000506940062AD5A16B086840680004000CE2
:100CE000EAD0A68D8642E7D9E0858869202818D009
:100CF000D06820F48070D0602068416921F0010143
:100D000041612068416921F04001416184F83E3031
:100D100025632068C16821F01001C160A06BFFF756
:100D2000B3FAA08DE18D401A81B219E0A08DE18D5A
:100D3000401A81B2E08D0028BED00029BCD0D06816
:100D400020F49070D0602068426922F00102426174
:100D500084F83E3025632068C26822F01002C26029
:100D60002046FFF737FFF8BD05062BD50D0629D520
:100D700094F83D002128F6D1A068B0F5805F01D13C
:100D80002069B0B1206A411C216221680078486066
:100D9000E08C401E0004000CE084E4D12068C168AF
:100DA00021F08001C1602068C16841F04001C1604C
:100DB000F8BD206A0088C0F308005060206A801CDB
:100DC0002062E5E74006F3D54806F1D5D168204614
:100DD00021F04001D16084F83D3000F012F9F8BDF7
:100DE0003313000870B5040004D094F83D000025CA
:100DF00010B106E0012070BD84F83C50204600F0A0
:100E000023F8242084F83D002068C16821F40051B3
:100E1000C160204600F008FB2068016921F4904180
:100E200001612068416921F02A0141612068C1689F
:100E300041F40051C1602564202084F83D0084F80D
:100E40003E00002070BD000030B585B00024009445
:100E50000194029403940068184988422CD11848E0
:100E6000816941F480418161816901F4804104918B
:100E7000816941F0040181618069124D00F0040034
:100E800004904FF400700090022001900320039022
:100E900069462846FFF77AFA2815CDE90004694625
:100EA00028460294FFF772FA002211462520FFF728
:100EB000CFFB2520FFF7BEFB05B030BD0038014059
:100EC000001002400008014090F83E30202B0ED167
:100ED00059B152B190F83C30012B08D0012380F871
:100EE0003C300023036300F0FBBA0120704702206E
:100EF00070470000104910B50878FF280ED3002075
:100F000008704FF480710D48FFF713F94FF6FF7327
:100F10000A220BA10D4800F01BF804E0074B4A78A9
:100F20001A54401C087004490122BDE81040491CB5
:100F30000648FFF7C9BF000000000020180000208D
:100F4000CAFDBEDDD2E7B3F60000000018010020A4
:100F50002DE9F843044690F83D001F4616460D461D
:100F600020284CD1C5B1BEB194F83C00012846D030
:100F7000012084F83C004FF00008C4F84080212094
:100F800084F83D00FFF7F8FAA6848146E684A0685D
:100F9000B0F5805F03D004E00120BDE8F88320694C
:100FA00028B12E465FF0000584F83C800EE0002654
:100FB000FAE78021204600F0AEFAA0B9AEB116F8EB
:100FC000010B21684860E08C401EE084E08C4B46B9
:100FD0004FF0000200970028EBD14FF0400120466F
:100FE00000F099FA30B10320D7E735F8020BC0F3CF
:100FF0000800E6E7202084F83D000020CDE702202D
:10100000CBE77047FEE7000070B50D4C0025C4F833
:1010100098510C48016821F070410160016841F06D
:1010200040510160C4F89C51022004F5CC7400F0DA
:1010300087FB01202060022000F082FB256070BD4C
:1010400000802142000C014070B50D4C0025C4F811
:1010500098510C48016821F070410160016841F02D
:10106000405101600126C4F89C61022004F5CC7453
:1010700000F066FB2660022000F062FB256070BD78
:1010800000802142000C01402DE9F04781461748BD
:101090000024016821F070410160016841F00041C5
:1010A0000160134E254627464FF00108C6F8987197
:1010B000022000F045FBC6F898816006040ED6F8C1
:1010C0001C0108B1641CE4B2012000F039FB6D1C66
:1010D000EDB2082DEAD3B9F1000F04D0FFF794FF69
:1010E0002046BDE8F087FFF7AFFFF9E7000C0140AD
:1010F000008021422DE9F04106461448016821F0A4
:1011000070410160016841F040510160104C0027BE
:10111000C4F898713D464FF00108F009C4F89C01ED
:101120007006060E022000F00BFBC4F89881022026
:1011300000F006FBC4F89871022000F001FB6D1C62
:10114000EDB2082DE9D3BDE8F0810000000C0140AC
:101150000080214270B50D48016821F070410160A6
:10116000016841F040510160094C0120C4F89C0124
:10117000C4F89801042004F5CC7400F0E1FA0025CD
:101180006560042000F0DCFA256070BD000C0140B1
:10119000008021420E4810B5016821F070410160C5
:1011A000016841F0405101600A4C0020C4F89801E8
:1011B000C4F89C01042004F5CC7400F0C1FA0120AD
:1011C00020606060BDE81040042000F0B9BA000063
:1011D000000C01400080214270B5134800240168D2
:1011E00021F070410160016841F0004101600F4D44
:1011F0000126C5F89C61304600F0A2FAC5F8986156
:10120000012000F09DFA07E0641CE4B2FA2C03D937
:10121000FFF7C0FF012070BDD5F81C010028F3D1F5
:10122000C5F8980170BD0000000C0140008021420B
:1012300030B585B0002414480094019402940394BE
:10124000816941F004018161816901F00401049127
:10125000816941F00801816180690C4D00F008004E
:1012600004900022C0212846FFF780F9C02000909A
:101270000120CDE901040220039069462846FFF7CA
:1012800085F805B030BD000000100240000C0140A0
:101290000C4810B50A4901604FF4E131416000216A
:1012A00081600C22C160C0E904128161C161FFF755
:1012B00099FD002803D0BDE81040FEF7E3BF10BD44
:1012C0000038014018010020FEE7FEE77047704734
:1012D000FFF758B930B58FB028216846FEF729FFCF
:1012E00014210AA8FEF725FF02250120049000958D
:1012F0001020059000244FF46010CDE908400795B8
:101300006846FFF7C3FA08B172B6FEE70F20CDE9D1
:101310000A054FF48060CDE90C4002210AA80E9422
:10132000FFF7C8F9002801D072B6FEE70FB030BD54
:10133000704710B5406A0021C185C184FFF74BFC9E
:1013400010BD0168CA6822F49072CA6001684A69D7
:1013500022F001024A61016B012904D10168CA68C7
:1013600022F01002CA60202180F83E1000210163A3
:10137000704708B590F83E10222901D0022008BD20
:1013800082684FF480539A4201D1016921B1816A88
:101390009A421BD04AB10AE00268816A5268C2F3DD
:1013A00008020A80816A891C08E0026972B1026839
:1013B000526802F07F020A70816A491C8162C18D05
:1013C000491E0904090CC18503D019E0026852685E
:1013D000F1E70168CA6822F02002CA600168CA68A1
:1013E00022F48072CA6001684A6922F001024A61EF
:1013F000202180F83E10016B012903D0FFF77AFD10
:10140000002008BD002101630168CA6822F01002B3
:10141000CA6001680A68D20602D50A684968009164
:10142000818DFFF7D7FBEBE770B5044600680169D3
:10143000E26821F44051114301612169A068084329
:10144000616908432168CA6841F20C639A43024308
:10145000CA6020684169A26921F440711143416169
:101460001E492068884202D1FFF7CAF901E0FFF760
:10147000B7F900EBC00101EB001260686421800045
:10148000B2FBF0F3B3FBF1F36FF018067343B2FB5A
:10149000F0F5B2FBF0F605EB8305322303EB0515FF
:1014A000B5FBF1F5B6FBF1F605F0F00505EB061519
:1014B000B2FBF0F6B2FBF0F0B0FBF1F06FF0180207
:1014C000504306EB800003EB0010B0FBF1F0216805
:1014D00000F00F002844886070BD00000038014013
:1014E00081628285C28500210164222280F83E202B
:1014F00080F83C100168CA6842F48072CA600168D2
:101500004A6942F001024A610068C16841F0200165
:10151000C160002070472DE9F041984617460E46FD
:101520000446069D1DE0681C1BD02DB1FFF724F872
:10153000A0EB0800A84214D92068C16821F4D0713A
:10154000C1602068416921F001014161202084F8D7
:101550003D0084F83E00002084F83C000320BDE8F4
:10156000F0812068006836EA000004D00020B8420C
:10157000D9D00020F3E70120F9E700000148FFF788
:101580002BBB000018010020FEE700000FB4054B44
:1015900010B503A9044A029800F028F810BC5DF8C1
:1015A00014FB000089170008040000200907090E39
:1015B000002804DB00F1E02080F80014704700F000
:1015C0000F0000F1E02080F8141D704702E008C809
:1015D000121F08C1002AFAD170477047002001E0AD
:1015E00001C1121F002AFBD1704700002DE9FF4FF7
:1015F00089B09B460446002506E025280BD05A46B4
:101600000B999047641C6D1C20780028F5D10DB013
:101610002846BDE8F08F0027B8460122474900E080
:10162000074314F8013F203B02FA03F00842F7D1C8
:1016300020782E2819D114F8010F47F004072A2822
:101640000ED06FF02F022078A0F1300109290CD8BC
:1016500008EB880102EB410100EB0108641CF2E792
:101660000A98641C50F8048B0A9020780028CED089
:10167000642808D0692806D075281ED05A460B99D0
:1016800090476D1C58E00A994FF00A0901C90A9168
:10169000002802DA40422D2102E0390504D52B2131
:1016A0008DF82010012103E0F90704D02021F7E78D
:1016B0008A4608AE0DE00021FAE70A994FF00A09C0
:1016C00001C90A91F7E74946FEF73EFD303106F8B9
:1016D000011D0028F7D1ADEB060000F120097807C5
:1016E00001D44FF00108C84502DDA8EB090000E075
:1016F00000208046002706E008A85A46C05D0B99E6
:1017000090476D1C7F1C5745F6DB04E030205A469D
:101710000B9990476D1CB8F10001A8F10108F5DCA8
:1017200005E016F8010B5A460B9990476D1CB9F16C
:101730000001A9F10109F4DC641C65E70928010036
:1017400031B54FF461754FF0E022009818E02B4658
:10175000984200D803469169584211EB801005D495
:1017600094698C4209DA8442FADA06E000F57A409C
:1017700094698C42FCDD8442FADC0098C01A009027
:101780000028E4D138BD000004490A685206FCD59F
:10179000024AC1B2121D11607047000000380140BA
:1017A0000EB5FEF7F7FEFFF795FDFFF741FDFFF7DA
:1017B0006FFD0122C0212748FEF7D8FE01222649ED
:1017C0002648FFF781FB4FF4FA740BE024A0FFF7E3
:1017D000DDFE2046FEF7C8FD27A0FFF7D7FE204616
:1017E000FEF7C2FDFEF7D8FC0028EFD126A0FFF7D8
:1017F000CDFE294C294E20781128FCD13078204488
:1018000010F8030C1128F6D160788DF80800A07844
:101810008DF80900022202A90020FEF702FD022233
:1018200069460020FEF7CBFC5FF000059DF8010043
:101830009DF8001001FB050119A0FFF7A7FE6D1C24
:10184000052DF3DB002030704FF480711248FEF755
:1018500070FCD0E7000C01400100002018010020BE
:10186000323443303220436865636B204661696CD3
:101870006564210D0A000000506C656173652043AA
:101880006865636B210D0A003234433032205265A3
:10189000616479210D0A000018000020000000207A
:1018A000726573756C743A25640D0A0000000000BF
:1018B0000000000001020304060708090000000000
:1018C00001020304E41800080000002018000000D2
:1018D000CC150008FC18000818000020480500007E
:1018E000DC150008000000000000000001000000FE
:0C18F00010000000000000000024F400C4
:04000005080000ED02
:00000001FF
